{
  "_format": "hh-sol-artifact-1",
  "contractName": "Escrow",
  "sourceName": "contracts/Escrow.sol",
  "abi": [
    {
      "inputs": [
        {
          "internalType": "address",
          "name": "_usdc",
          "type": "address"
        }
      ],
      "stateMutability": "nonpayable",
      "type": "constructor"
    },
    {
      "inputs": [],
      "name": "USDC",
      "outputs": [
        {
          "internalType": "address",
          "name": "",
          "type": "address"
        }
      ],
      "stateMutability": "view",
      "type": "function"
    },
    {
      "inputs": [
        {
          "internalType": "uint256",
          "name": "",
          "type": "uint256"
        }
      ],
      "name": "activeEntries",
      "outputs": [
        {
          "internalType": "uint256",
          "name": "",
          "type": "uint256"
        }
      ],
      "stateMutability": "view",
      "type": "function"
    },
    {
      "inputs": [
        {
          "internalType": "string",
          "name": "paypalHandle",
          "type": "string"
        },
        {
          "internalType": "uint256",
          "name": "amount",
          "type": "uint256"
        }
      ],
      "name": "createEntry",
      "outputs": [],
      "stateMutability": "nonpayable",
      "type": "function"
    },
    {
      "inputs": [],
      "name": "getActiveEntries",
      "outputs": [
        {
          "internalType": "uint256[]",
          "name": "",
          "type": "uint256[]"
        }
      ],
      "stateMutability": "view",
      "type": "function"
    },
    {
      "inputs": [
        {
          "internalType": "uint256",
          "name": "id",
          "type": "uint256"
        }
      ],
      "name": "getEntry",
      "outputs": [
        {
          "internalType": "uint256",
          "name": "",
          "type": "uint256"
        },
        {
          "internalType": "enum Escrow.Status",
          "name": "",
          "type": "uint8"
        }
      ],
      "stateMutability": "nonpayable",
      "type": "function"
    },
    {
      "inputs": [
        {
          "internalType": "uint256",
          "name": "id",
          "type": "uint256"
        }
      ],
      "name": "proofOfPaiement",
      "outputs": [],
      "stateMutability": "nonpayable",
      "type": "function"
    },
    {
      "inputs": [
        {
          "internalType": "uint256",
          "name": "id",
          "type": "uint256"
        }
      ],
      "name": "subscribe",
      "outputs": [],
      "stateMutability": "nonpayable",
      "type": "function"
    }
  ],
  "bytecode": "0x608060405234801561001057600080fd5b50604051611078380380611078833981810160405281019061003291906100db565b806000806101000a81548173ffffffffffffffffffffffffffffffffffffffff021916908373ffffffffffffffffffffffffffffffffffffffff16021790555050610108565b600080fd5b600073ffffffffffffffffffffffffffffffffffffffff82169050919050565b60006100a88261007d565b9050919050565b6100b88161009d565b81146100c357600080fd5b50565b6000815190506100d5816100af565b92915050565b6000602082840312156100f1576100f0610078565b5b60006100ff848285016100c6565b91505092915050565b610f61806101176000396000f3fe608060405234801561001057600080fd5b506004361061007d5760003560e01c80635ee842dc1161005b5780635ee842dc146100d857806389a3027114610108578063bae78d7b14610126578063e6af705f146101575761007d565b80630f574ba7146100825780631c503ae61461009e57806348891e39146100bc575b600080fd5b61009c600480360381019061009791906106dd565b610173565b005b6100a66102a9565b6040516100b391906107c8565b60405180910390f35b6100d660048036038101906100d191906106dd565b610301565b005b6100f260048036038101906100ed91906106dd565b610304565b6040516100ff91906107f9565b60405180910390f35b610110610328565b60405161011d9190610855565b60405180910390f35b610140600480360381019061013b91906106dd565b61034c565b60405161014e9291906108e7565b60405180910390f35b610171600480360381019061016c9190610a56565b6104b2565b005b600073ffffffffffffffffffffffffffffffffffffffff166003600083815260200190815260200160002060009054906101000a900473ffffffffffffffffffffffffffffffffffffffff1673ffffffffffffffffffffffffffffffffffffffff1614610215576040517f08c379a000000000000000000000000000000000000000000000000000000000815260040161020c90610b0f565b60405180910390fd5b336003600083815260200190815260200160002060006101000a81548173ffffffffffffffffffffffffffffffffffffffff021916908373ffffffffffffffffffffffffffffffffffffffff16021790555060016002600083815260200190815260200160002060030160006101000a81548160ff021916908360028111156102a1576102a0610870565b5b021790555050565b606060048054806020026020016040519081016040528092919081815260200182805480156102f757602002820191906000526020600020905b8154815260200190600101908083116102e3575b5050505050905090565b50565b6004818154811061031457600080fd5b906000526020600020016000915090505481565b60008054906101000a900473ffffffffffffffffffffffffffffffffffffffff1681565b6000806000600260008581526020019081526020016000206040518060800160405290816000820160009054906101000a900473ffffffffffffffffffffffffffffffffffffffff1673ffffffffffffffffffffffffffffffffffffffff1673ffffffffffffffffffffffffffffffffffffffff1681526020016001820180546103d590610b5e565b80601f016020809104026020016040519081016040528092919081815260200182805461040190610b5e565b801561044e5780601f106104235761010080835404028352916020019161044e565b820191906000526020600020905b81548152906001019060200180831161043157829003601f168201915b50505050508152602001600282015481526020016003820160009054906101000a900460ff16600281111561048657610485610870565b5b600281111561049857610497610870565b5b815250509050806040015181606001519250925050915091565b60008054906101000a900473ffffffffffffffffffffffffffffffffffffffff1673ffffffffffffffffffffffffffffffffffffffff166323b872dd3330846040518463ffffffff1660e01b815260040161050f93929190610b8f565b6020604051808303816000875af115801561052e573d6000803e3d6000fd5b505050506040513d601f19601f820116820180604052508101906105529190610bfe565b5060405180608001604052803373ffffffffffffffffffffffffffffffffffffffff1681526020018381526020018281526020016000600281111561059a57610599610870565b5b81525060026000600154815260200190815260200160002060008201518160000160006101000a81548173ffffffffffffffffffffffffffffffffffffffff021916908373ffffffffffffffffffffffffffffffffffffffff160217905550602082015181600101908161060e9190610de2565b506040820151816002015560608201518160030160006101000a81548160ff0219169083600281111561064457610643610870565b5b0217905550905050600460015490806001815401808255809150506001900390600052602060002001600090919091909150556001600081548092919061068a90610ee3565b91905055505050565b6000604051905090565b600080fd5b600080fd5b6000819050919050565b6106ba816106a7565b81146106c557600080fd5b50565b6000813590506106d7816106b1565b92915050565b6000602082840312156106f3576106f261069d565b5b6000610701848285016106c8565b91505092915050565b600081519050919050565b600082825260208201905092915050565b6000819050602082019050919050565b61073f816106a7565b82525050565b60006107518383610736565b60208301905092915050565b6000602082019050919050565b60006107758261070a565b61077f8185610715565b935061078a83610726565b8060005b838110156107bb5781516107a28882610745565b97506107ad8361075d565b92505060018101905061078e565b5085935050505092915050565b600060208201905081810360008301526107e2818461076a565b905092915050565b6107f3816106a7565b82525050565b600060208201905061080e60008301846107ea565b92915050565b600073ffffffffffffffffffffffffffffffffffffffff82169050919050565b600061083f82610814565b9050919050565b61084f81610834565b82525050565b600060208201905061086a6000830184610846565b92915050565b7f4e487b7100000000000000000000000000000000000000000000000000000000600052602160045260246000fd5b600381106108b0576108af610870565b5b50565b60008190506108c18261089f565b919050565b60006108d1826108b3565b9050919050565b6108e1816108c6565b82525050565b60006040820190506108fc60008301856107ea565b61090960208301846108d8565b9392505050565b600080fd5b600080fd5b6000601f19601f8301169050919050565b7f4e487b7100000000000000000000000000000000000000000000000000000000600052604160045260246000fd5b6109638261091a565b810181811067ffffffffffffffff821117156109825761098161092b565b5b80604052505050565b6000610995610693565b90506109a1828261095a565b919050565b600067ffffffffffffffff8211156109c1576109c061092b565b5b6109ca8261091a565b9050602081019050919050565b82818337600083830152505050565b60006109f96109f4846109a6565b61098b565b905082815260208101848484011115610a1557610a14610915565b5b610a208482856109d7565b509392505050565b600082601f830112610a3d57610a3c610910565b5b8135610a4d8482602086016109e6565b91505092915050565b60008060408385031215610a6d57610a6c61069d565b5b600083013567ffffffffffffffff811115610a8b57610a8a6106a2565b5b610a9785828601610a28565b9250506020610aa8858286016106c8565b9150509250929050565b600082825260208201905092915050565b7f4e4545445f544f5f42455f4c4f434b0000000000000000000000000000000000600082015250565b6000610af9600f83610ab2565b9150610b0482610ac3565b602082019050919050565b60006020820190508181036000830152610b2881610aec565b9050919050565b7f4e487b7100000000000000000000000000000000000000000000000000000000600052602260045260246000fd5b60006002820490506001821680610b7657607f821691505b602082108103610b8957610b88610b2f565b5b50919050565b6000606082019050610ba46000830186610846565b610bb16020830185610846565b610bbe60408301846107ea565b949350505050565b60008115159050919050565b610bdb81610bc6565b8114610be657600080fd5b50565b600081519050610bf881610bd2565b92915050565b600060208284031215610c1457610c1361069d565b5b6000610c2284828501610be9565b91505092915050565b600081519050919050565b60008190508160005260206000209050919050565b60006020601f8301049050919050565b600082821b905092915050565b600060088302610c987fffffffffffffffffffffffffffffffffffffffffffffffffffffffffffffffff82610c5b565b610ca28683610c5b565b95508019841693508086168417925050509392505050565b6000819050919050565b6000610cdf610cda610cd5846106a7565b610cba565b6106a7565b9050919050565b6000819050919050565b610cf983610cc4565b610d0d610d0582610ce6565b848454610c68565b825550505050565b600090565b610d22610d15565b610d2d818484610cf0565b505050565b5b81811015610d5157610d46600082610d1a565b600181019050610d33565b5050565b601f821115610d9657610d6781610c36565b610d7084610c4b565b81016020851015610d7f578190505b610d93610d8b85610c4b565b830182610d32565b50505b505050565b600082821c905092915050565b6000610db960001984600802610d9b565b1980831691505092915050565b6000610dd28383610da8565b9150826002028217905092915050565b610deb82610c2b565b67ffffffffffffffff811115610e0457610e0361092b565b5b610e0e8254610b5e565b610e19828285610d55565b600060209050601f831160018114610e4c5760008415610e3a578287015190505b610e448582610dc6565b865550610eac565b601f198416610e5a86610c36565b60005b82811015610e8257848901518255600182019150602085019450602081019050610e5d565b86831015610e9f5784890151610e9b601f891682610da8565b8355505b6001600288020188555050505b505050505050565b7f4e487b7100000000000000000000000000000000000000000000000000000000600052601160045260246000fd5b6000610eee826106a7565b91507fffffffffffffffffffffffffffffffffffffffffffffffffffffffffffffffff8203610f2057610f1f610eb4565b5b60018201905091905056fea2646970667358221220f15bcb6dcdcaaefecdb299214bb88ebbd8553a345f665226814766844071de7b64736f6c634300081c0033",
  "linkReferences": {},
  "deployedLinkReferences": {}
}