{
    "_format": "hh-sol-artifact-1",
    "contractName": "Escrow",
    "sourceName": "contracts/Escrow.sol",
    "abi": [
        {
            "inputs": [
                {
                    "internalType": "address",
                    "name": "_usdc",
                    "type": "address"
                }
            ],
            "stateMutability": "nonpayable",
            "type": "constructor"
        },
        {
            "inputs": [],
            "name": "A13e_RevokedAuthToken",
            "type": "error"
        },
        {
            "inputs": [],
            "name": "InsufficientFund",
            "type": "error"
        },
        {
            "inputs": [],
            "name": "SiweAuth_AddressMismatch",
            "type": "error"
        },
        {
            "inputs": [],
            "name": "SiweAuth_ChainIdMismatch",
            "type": "error"
        },
        {
            "inputs": [],
            "name": "SiweAuth_DomainMismatch",
            "type": "error"
        },
        {
            "inputs": [],
            "name": "SiweAuth_Expired",
            "type": "error"
        },
        {
            "inputs": [],
            "name": "SiweAuth_NotBeforeInFuture",
            "type": "error"
        },
        {
            "inputs": [],
            "name": "SiweParser_InvalidAddressLength",
            "type": "error"
        },
        {
            "inputs": [],
            "name": "SiweParser_InvalidNonce",
            "type": "error"
        },
        {
            "anonymous": false,
            "inputs": [
                {
                    "indexed": false,
                    "internalType": "uint256",
                    "name": "",
                    "type": "uint256"
                },
                {
                    "indexed": false,
                    "internalType": "address",
                    "name": "",
                    "type": "address"
                }
            ],
            "name": "NewSubscription",
            "type": "event"
        },
        {
            "inputs": [],
            "name": "USDC",
            "outputs": [
                {
                    "internalType": "address",
                    "name": "",
                    "type": "address"
                }
            ],
            "stateMutability": "view",
            "type": "function"
        },
        {
            "inputs": [
                {
                    "internalType": "uint256",
                    "name": "",
                    "type": "uint256"
                }
            ],
            "name": "activeEntries",
            "outputs": [
                {
                    "internalType": "uint256",
                    "name": "",
                    "type": "uint256"
                }
            ],
            "stateMutability": "view",
            "type": "function"
        },
        {
            "inputs": [
                {
                    "internalType": "string",
                    "name": "paypalHandle",
                    "type": "string"
                },
                {
                    "internalType": "uint256",
                    "name": "amount",
                    "type": "uint256"
                }
            ],
            "name": "createEntry",
            "outputs": [],
            "stateMutability": "nonpayable",
            "type": "function"
        },
        {
            "inputs": [],
            "name": "domain",
            "outputs": [
                {
                    "internalType": "string",
                    "name": "",
                    "type": "string"
                }
            ],
            "stateMutability": "view",
            "type": "function"
        },
        {
            "inputs": [],
            "name": "getActiveEntries",
            "outputs": [
                {
                    "internalType": "uint256[]",
                    "name": "",
                    "type": "uint256[]"
                }
            ],
            "stateMutability": "view",
            "type": "function"
        },
        {
            "inputs": [
                {
                    "internalType": "uint256",
                    "name": "id",
                    "type": "uint256"
                }
            ],
            "name": "getEntry",
            "outputs": [
                {
                    "internalType": "uint256",
                    "name": "",
                    "type": "uint256"
                },
                {
                    "internalType": "enum Escrow.Status",
                    "name": "",
                    "type": "uint8"
                }
            ],
            "stateMutability": "view",
            "type": "function"
        },
        {
            "inputs": [
                {
                    "internalType": "uint256",
                    "name": "id",
                    "type": "uint256"
                },
                {
                    "internalType": "bytes",
                    "name": "token",
                    "type": "bytes"
                }
            ],
            "name": "getPaypalHandle",
            "outputs": [
                {
                    "internalType": "string",
                    "name": "",
                    "type": "string"
                }
            ],
            "stateMutability": "view",
            "type": "function"
        },
        {
            "inputs": [
                {
                    "internalType": "uint256",
                    "name": "",
                    "type": "uint256"
                }
            ],
            "name": "isLocked",
            "outputs": [
                {
                    "internalType": "address",
                    "name": "",
                    "type": "address"
                }
            ],
            "stateMutability": "view",
            "type": "function"
        },
        {
            "inputs": [
                {
                    "internalType": "string",
                    "name": "siweMsg",
                    "type": "string"
                },
                {
                    "components": [
                        {
                            "internalType": "bytes32",
                            "name": "r",
                            "type": "bytes32"
                        },
                        {
                            "internalType": "bytes32",
                            "name": "s",
                            "type": "bytes32"
                        },
                        {
                            "internalType": "uint256",
                            "name": "v",
                            "type": "uint256"
                        }
                    ],
                    "internalType": "struct SignatureRSV",
                    "name": "sig",
                    "type": "tuple"
                }
            ],
            "name": "login",
            "outputs": [
                {
                    "internalType": "bytes",
                    "name": "",
                    "type": "bytes"
                }
            ],
            "stateMutability": "view",
            "type": "function"
        },
        {
            "inputs": [
                {
                    "internalType": "string",
                    "name": "handle",
                    "type": "string"
                },
                {
                    "internalType": "uint256",
                    "name": "amount",
                    "type": "uint256"
                }
            ],
            "name": "proofOfPaiement",
            "outputs": [],
            "stateMutability": "nonpayable",
            "type": "function"
        },
        {
            "inputs": [
                {
                    "internalType": "uint256",
                    "name": "id",
                    "type": "uint256"
                }
            ],
            "name": "subscribe",
            "outputs": [],
            "stateMutability": "nonpayable",
            "type": "function"
        }
    ],
    "bytecode": "0x608060405234801561001057600080fd5b5060405161511338038061511383398181016040528101906100329190610241565b6040518060400160405280600981526020017f6c6f63616c686f737400000000000000000000000000000000000000000000008152506100886020604051806020016040528060008152506100ef60201b60201c565b610091906102b5565b60028190555080600190816100a6919061055f565b505080600360006101000a81548173ffffffffffffffffffffffffffffffffffffffff021916908373ffffffffffffffffffffffffffffffffffffffff160217905550506107c5565b606060008073010000000000000000000000000000000000000173ffffffffffffffffffffffffffffffffffffffff1685856040516020016101329291906106c5565b60405160208183030381529060405260405161014e9190610731565b600060405180830381855afa9150503d8060008114610189576040519150601f19603f3d011682016040523d82523d6000602084013e61018e565b606091505b5091509150816101d3576040517f08c379a00000000000000000000000000000000000000000000000000000000081526004016101ca906107a5565b60405180910390fd5b809250505092915050565b600080fd5b600073ffffffffffffffffffffffffffffffffffffffff82169050919050565b600061020e826101e3565b9050919050565b61021e81610203565b811461022957600080fd5b50565b60008151905061023b81610215565b92915050565b600060208284031215610257576102566101de565b5b60006102658482850161022c565b91505092915050565b600081519050919050565b6000819050602082019050919050565b6000819050919050565b600061029f8251610289565b80915050919050565b600082821b905092915050565b60006102c08261026e565b826102ca84610279565b90506102d581610293565b92506020821015610315576103107fffffffffffffffffffffffffffffffffffffffffffffffffffffffffffffffff836020036008026102a8565b831692505b5050919050565b600081519050919050565b7f4e487b7100000000000000000000000000000000000000000000000000000000600052604160045260246000fd5b7f4e487b7100000000000000000000000000000000000000000000000000000000600052602260045260246000fd5b6000600282049050600182168061039d57607f821691505b6020821081036103b0576103af610356565b5b50919050565b60008190508160005260206000209050919050565b60006020601f8301049050919050565b60006008830261040b7fffffffffffffffffffffffffffffffffffffffffffffffffffffffffffffffff826102a8565b61041586836102a8565b95508019841693508086168417925050509392505050565b6000819050919050565b6000819050919050565b600061045c6104576104528461042d565b610437565b61042d565b9050919050565b6000819050919050565b61047683610441565b61048a61048282610463565b8484546103db565b825550505050565b600090565b61049f610492565b6104aa81848461046d565b505050565b5b818110156104ce576104c3600082610497565b6001810190506104b0565b5050565b601f821115610513576104e4816103b6565b6104ed846103cb565b810160208510156104fc578190505b610510610508856103cb565b8301826104af565b50505b505050565b600082821c905092915050565b600061053660001984600802610518565b1980831691505092915050565b600061054f8383610525565b9150826002028217905092915050565b6105688261031c565b67ffffffffffffffff81111561058157610580610327565b5b61058b8254610385565b6105968282856104d2565b600060209050601f8311600181146105c957600084156105b7578287015190505b6105c18582610543565b865550610629565b601f1984166105d7866103b6565b60005b828110156105ff578489015182556001820191506020850194506020810190506105da565b8683101561061c5784890151610618601f891682610525565b8355505b6001600288020188555050505b505050505050565b61063a8161042d565b82525050565b600082825260208201905092915050565b60005b8381101561066f578082015181840152602081019050610654565b60008484015250505050565b6000601f19601f8301169050919050565b60006106978261026e565b6106a18185610640565b93506106b1818560208601610651565b6106ba8161067b565b840191505092915050565b60006040820190506106da6000830185610631565b81810360208301526106ec818461068c565b90509392505050565b600081905092915050565b600061070b8261026e565b61071581856106f5565b9350610725818560208601610651565b80840191505092915050565b600061073d8284610700565b915081905092915050565b600082825260208201905092915050565b7f72616e646f6d42797465733a206661696c656400000000000000000000000000600082015250565b600061078f601383610748565b915061079a82610759565b602082019050919050565b600060208201905081810360008301526107be81610782565b9050919050565b61493f806107d46000396000f3fe608060405234801561001057600080fd5b50600436106100a95760003560e01c806389a302711161007157806389a30271146101785780639432f56f14610196578063bae78d7b146101b2578063c2fb26a6146101e3578063e6af705f14610201578063f6aacfb11461021d576100a9565b80630f3138fd146100ae5780630f574ba7146100de5780631c503ae6146100fa5780635ee842dc146101185780637f476b6f14610148575b600080fd5b6100c860048036038101906100c391906131ac565b61024d565b6040516100d59190613287565b60405180910390f35b6100f860048036038101906100f391906132a9565b610409565b005b610102610578565b60405161010f9190613394565b60405180910390f35b610132600480360381019061012d91906132a9565b6105d0565b60405161013f91906133c5565b60405180910390f35b610162600480360381019061015d9190613464565b6105f4565b60405161016f9190613519565b60405180910390f35b6101806109e7565b60405161018d919061357c565b60405180910390f35b6101b060048036038101906101ab9190613638565b610a0d565b005b6101cc60048036038101906101c791906132a9565b610ca8565b6040516101da92919061370b565b60405180910390f35b6101eb610e0e565b6040516101f89190613287565b60405180910390f35b61021b60048036038101906102169190613638565b610ea0565b005b610237600480360381019061023291906132a9565b611109565b604051610244919061357c565b60405180910390f35b60603373ffffffffffffffffffffffffffffffffffffffff166007600085815260200190815260200160002060009054906101000a900473ffffffffffffffffffffffffffffffffffffffff1673ffffffffffffffffffffffffffffffffffffffff1614801561032357506102c18261113c565b73ffffffffffffffffffffffffffffffffffffffff166007600085815260200190815260200160002060009054906101000a900473ffffffffffffffffffffffffffffffffffffffff1673ffffffffffffffffffffffffffffffffffffffff16145b610362576040517f08c379a000000000000000000000000000000000000000000000000000000000815260040161035990613780565b60405180910390fd5b600560008481526020019081526020016000206001018054610383906137cf565b80601f01602080910402602001604051908101604052809291908181526020018280546103af906137cf565b80156103fc5780601f106103d1576101008083540402835291602001916103fc565b820191906000526020600020905b8154815290600101906020018083116103df57829003601f168201915b5050505050905092915050565b600073ffffffffffffffffffffffffffffffffffffffff166007600083815260200190815260200160002060009054906101000a900473ffffffffffffffffffffffffffffffffffffffff1673ffffffffffffffffffffffffffffffffffffffff16146104ab576040517f08c379a00000000000000000000000000000000000000000000000000000000081526004016104a29061384c565b60405180910390fd5b336007600083815260200190815260200160002060006101000a81548173ffffffffffffffffffffffffffffffffffffffff021916908373ffffffffffffffffffffffffffffffffffffffff16021790555060016005600083815260200190815260200160002060030160006101000a81548160ff0219169083600281111561053757610536613694565b5b02179055507fbe52d872f17b3ffc33cfeaa7c29d8bbcac9aaf5cd81ca2062ca6d8811d6a8d0b813360405161056d92919061386c565b60405180910390a150565b606060088054806020026020016040519081016040528092919081815260200182805480156105c657602002820191906000526020600020905b8154815260200190600101908083116105b2575b5050505050905090565b600881815481106105e057600080fd5b906000526020600020016000915090505481565b60606105fe612f3d565b600061060c868690506111cb565b868660405160200161062093929190613942565b60405160208183030381529060405290506000600182805190602001208660400135876000013588602001356040516000815260200160405260405161066994939291906139a8565b6020604051602081039080840390855afa15801561068b573d6000803e3d6000fd5b50505060206040510351905080836020019073ffffffffffffffffffffffffffffffffffffffff16908173ffffffffffffffffffffffffffffffffffffffff168152505060006106db8888611299565b9050468160a001511461071a576040517f362c833700000000000000000000000000000000000000000000000000000000815260040160405180910390fd5b60016040516107299190613a90565b604051809103902081600001518051906020012014610774576040517f283d62bd00000000000000000000000000000000000000000000000000000000815260040160405180910390fd5b806000015184600001819052508173ffffffffffffffffffffffffffffffffffffffff16816020015173ffffffffffffffffffffffffffffffffffffffff16146107ea576040517f05cc02e100000000000000000000000000000000000000000000000000000000815260040160405180910390fd5b6000816101200151511415801561080e575061080a8161012001516118d8565b4211155b15610845576040517f299d02f100000000000000000000000000000000000000000000000000000000815260040160405180910390fd5b600081610100015151146108755760006108638261010001516118d8565b9050808560400181815250505061088e565b62015180426108849190613ad6565b8460400181815250505b836040015142106108cb576040517fb171155000000000000000000000000000000000000000000000000000000000815260040160405180910390fd5b806040015184606001819052508061016001515167ffffffffffffffff8111156108f8576108f7613081565b5b60405190808252806020026020018201604052801561092b57816020015b60608152602001906001900390816109165790505b50846080018190525060005b8161016001515181101561099457816101600151818151811061095d5761095c613b0a565b5b60200260200101518560800151828151811061097c5761097b613b0a565b5b60200260200101819052508080600101915050610937565b5060006109d66002546000801b876040516020016109b29190613cd8565b60405160208183030381529060405260405180602001604052806000815250611967565b905080955050505050509392505050565b600360009054906101000a900473ffffffffffffffffffffffffffffffffffffffff1681565b6000600683604051610a1f9190613cfa565b90815260200160405180910390205490506005600082815260200190815260200160002060020154821015610a80576040517fd44b3c6200000000000000000000000000000000000000000000000000000000815260040160405180910390fd5b600073ffffffffffffffffffffffffffffffffffffffff166007600083815260200190815260200160002060009054906101000a900473ffffffffffffffffffffffffffffffffffffffff1673ffffffffffffffffffffffffffffffffffffffff1603610b22576040517f08c379a0000000000000000000000000000000000000000000000000000000008152600401610b1990613d5d565b60405180910390fd5b600360009054906101000a900473ffffffffffffffffffffffffffffffffffffffff1673ffffffffffffffffffffffffffffffffffffffff1663a9059cbb6007600084815260200190815260200160002060009054906101000a900473ffffffffffffffffffffffffffffffffffffffff1660056000858152602001908152602001600020600201546040518363ffffffff1660e01b8152600401610bc8929190613d7d565b6020604051808303816000875af1158015610be7573d6000803e3d6000fd5b505050506040513d601f19601f82011682018060405250810190610c0b9190613dde565b5060026005600083815260200190815260200160002060030160006101000a81548160ff02191690836002811115610c4657610c45613694565b5b02179055506007600082815260200190815260200160002060006101000a81549073ffffffffffffffffffffffffffffffffffffffff0219169055600683604051610c919190613cfa565b908152602001604051809103902060009055505050565b6000806000600560008581526020019081526020016000206040518060800160405290816000820160009054906101000a900473ffffffffffffffffffffffffffffffffffffffff1673ffffffffffffffffffffffffffffffffffffffff1673ffffffffffffffffffffffffffffffffffffffff168152602001600182018054610d31906137cf565b80601f0160208091040260200160405190810160405280929190818152602001828054610d5d906137cf565b8015610daa5780601f10610d7f57610100808354040283529160200191610daa565b820191906000526020600020905b815481529060010190602001808311610d8d57829003601f168201915b50505050508152602001600282015481526020016003820160009054906101000a900460ff166002811115610de257610de1613694565b5b6002811115610df457610df3613694565b5b815250509050806040015181606001519250925050915091565b606060018054610e1d906137cf565b80601f0160208091040260200160405190810160405280929190818152602001828054610e49906137cf565b8015610e965780601f10610e6b57610100808354040283529160200191610e96565b820191906000526020600020905b815481529060010190602001808311610e7957829003601f168201915b5050505050905090565b6000600683604051610eb29190613cfa565b90815260200160405180910390205414610f01576040517f08c379a0000000000000000000000000000000000000000000000000000000008152600401610ef890613e57565b60405180910390fd5b600360009054906101000a900473ffffffffffffffffffffffffffffffffffffffff1673ffffffffffffffffffffffffffffffffffffffff166323b872dd3330846040518463ffffffff1660e01b8152600401610f6093929190613e77565b6020604051808303816000875af1158015610f7f573d6000803e3d6000fd5b505050506040513d601f19601f82011682018060405250810190610fa39190613dde565b5060405180608001604052803373ffffffffffffffffffffffffffffffffffffffff16815260200183815260200182815260200160006002811115610feb57610fea613694565b5b81525060056000600454815260200190815260200160002060008201518160000160006101000a81548173ffffffffffffffffffffffffffffffffffffffff021916908373ffffffffffffffffffffffffffffffffffffffff160217905550602082015181600101908161105f919061405a565b506040820151816002015560608201518160030160006101000a81548160ff0219169083600281111561109557611094613694565b5b02179055509050506004546006836040516110b09190613cfa565b90815260200160405180910390208190555060086004549080600181540180825580915050600190039060005260206000200160009091909190915055600460008154809291906111009061412c565b91905055505050565b60076020528060005260406000206000915054906101000a900473ffffffffffffffffffffffffffffffffffffffff1681565b6000816000808280519060200120815260200190815260200160002060009054906101000a900460ff161561119d576040517f9ea6784800000000000000000000000000000000000000000000000000000000815260040160405180910390fd5b60008351036111af57600091506111c5565b60006111ba84611a5c565b905080602001519250505b50919050565b6060600060016111da84611b42565b01905060008167ffffffffffffffff8111156111f9576111f8613081565b5b6040519080825280601f01601f19166020018201604052801561122b5781602001600182028036833780820191505090505b509050600082602001820190505b60011561128e578080600190039150507f3031323334353637383961626364656600000000000000000000000000000000600a86061a8153600a858161128257611281614174565b5b04945060008503611239575b819350505050919050565b6112a1612f82565b6112a9612f82565b60005b84849050811015611386577f20000000000000000000000000000000000000000000000000000000000000008585838181106112eb576112ea613b0a565b5b9050013560f81c60f81b7effffffffffffffffffffffffffffffffffffffffffffffffffffffffffffff1916036113795761136c85858080601f016020809104026020016040519081016040528093929190818152602001838380828437600081840152601f19601f82011690508083019250505050505050600083611c95565b8260000181905250611386565b80806001019150506112ac565b6032816113939190613ad6565b905061140a61140586868080601f016020809104026020016040519081016040528093929190818152602001838380828437600081840152601f19601f820116905080830192505050505050506002846113ed9190613ad6565b9350836028856113fd9190613ad6565b945084611c95565b611d97565b826020019073ffffffffffffffffffffffffffffffffffffffff16908173ffffffffffffffffffffffffffffffffffffffff168152505060028161144e9190613ad6565b905084849050811080156114c057507f0a0000000000000000000000000000000000000000000000000000000000000085858381811061149157611490613b0a565b5b9050013560f81c60f81b7effffffffffffffffffffffffffffffffffffffffffffffffffffffffffffff191614155b156115995760008190505b8585905081101561159757600a60f81b8686838181106114ee576114ed613b0a565b5b9050013560f81c60f81b7effffffffffffffffffffffffffffffffffffffffffffffffffffffffffffff19160361158a5761156e86868080601f016020809104026020016040519081016040528093929190818152602001838380828437600081840152601f19601f820116905080830192505050505050508383611c95565b83604001819052506001816115839190613ad6565b9150611597565b80806001019150506114cb565b505b80806115a49061412c565b9150506115e885856040518060400160405280600381526020017f555249000000000000000000000000000000000000000000000000000000000081525084611f3c565b83606001819350829052505061163585856040518060400160405280600781526020017f56657273696f6e0000000000000000000000000000000000000000000000000081525084611f3c565b836080018193508290525050606061168486866040518060400160405280600881526020017f436861696e20494400000000000000000000000000000000000000000000000081525085611f3c565b809350819250505061169581612207565b8360a00181815250506116df86866040518060400160405280600581526020017f4e6f6e636500000000000000000000000000000000000000000000000000000081525085611f3c565b8460c001819450829052505060088360c0015151101561172b576040517fb4bc030c00000000000000000000000000000000000000000000000000000000815260040160405180910390fd5b61176c86866040518060400160405280600981526020017f497373756564204174000000000000000000000000000000000000000000000081525085611f3c565b8460e00181945082905250506117b986866040518060400160405280600f81526020017f45787069726174696f6e2054696d65000000000000000000000000000000000081525085611f3c565b8461010001819450829052505061180786866040518060400160405280600a81526020017f4e6f74204265666f72650000000000000000000000000000000000000000000081525085611f3c565b8461012001819450829052505061185586866040518060400160405280600a81526020017f526571756573742049440000000000000000000000000000000000000000000081525085611f3c565b8461014001819450829052505060006118a587876040518060400160405280600981526020017f5265736f7572636573000000000000000000000000000000000000000000000081525086611f3c565b9050809150508281146118cb576118bd87878361227a565b856101600181955082905250505b8394505050505092915050565b60006119606118f26118ed8460006004611c95565b612207565b6119076119028560056007611c95565b612207565b61191c611917866008600a611c95565b612207565b61193161192c87600b600d611c95565b612207565b61194661194188600e6010611c95565b612207565b61195b6119568960116013611c95565b612207565b6126aa565b9050919050565b606060008073010000000000000000000000000000000000000373ffffffffffffffffffffffffffffffffffffffff16878787876040516020016119ae94939291906141a3565b6040516020818303038152906040526040516119ca9190614227565b600060405180830381855afa9150503d8060008114611a05576040519150601f19603f3d011682016040523d82523d6000602084013e611a0a565b606091505b509150915081611a4f576040517f08c379a0000000000000000000000000000000000000000000000000000000008152600401611a469061428a565b60405180910390fd5b8092505050949350505050565b611a64612f3d565b6000611a866002546000801b8560405180602001604052806000815250612a6a565b9050600081806020019051810190611a9e9190614526565b90506001604051611aaf9190613a90565b604051809103902081600001518051906020012014611afa576040517f283d62bd00000000000000000000000000000000000000000000000000000000815260040160405180910390fd5b4281604001511015611b38576040517fb171155000000000000000000000000000000000000000000000000000000000815260040160405180910390fd5b8092505050919050565b600080600090507a184f03e93ff9f4daa797ed6e38ed64bf6a1f0100000000000000008310611ba0577a184f03e93ff9f4daa797ed6e38ed64bf6a1f0100000000000000008381611b9657611b95614174565b5b0492506040810190505b6d04ee2d6d415b85acef81000000008310611bdd576d04ee2d6d415b85acef81000000008381611bd357611bd2614174565b5b0492506020810190505b662386f26fc100008310611c0c57662386f26fc100008381611c0257611c01614174565b5b0492506010810190505b6305f5e1008310611c35576305f5e1008381611c2b57611c2a614174565b5b0492506008810190505b6127108310611c5a576127108381611c5057611c4f614174565b5b0492506004810190505b60648310611c7d5760648381611c7357611c72614174565b5b0492506002810190505b600a8310611c8c576001810190505b80915050919050565b606060008383611ca5919061456f565b67ffffffffffffffff811115611cbe57611cbd613081565b5b6040519080825280601f01601f191660200182016040528015611cf05781602001600182028036833780820191505090505b50905060008490505b8381108015611d085750855181105b15611d8b57858181518110611d2057611d1f613b0a565b5b602001015160f81c60f81b828683611d38919061456f565b81518110611d4957611d48613b0a565b5b60200101907effffffffffffffffffffffffffffffffffffffffffffffffffffffffffffff1916908160001a9053508080611d839061412c565b915050611cf9565b50809150509392505050565b60006028825114611dd4576040517facf8696900000000000000000000000000000000000000000000000000000000815260040160405180910390fd5b600060028351611de491906145a3565b67ffffffffffffffff811115611dfd57611dfc613081565b5b6040519080825280601f01601f191660200182016040528015611e2f5781602001600182028036833780820191505090505b50905060005b60028451611e4391906145a3565b811015611f2657611e8b846001836002611e5d91906145d4565b611e679190613ad6565b81518110611e7857611e77613b0a565b5b602001015160f81c60f81b60f81c612b5f565b6010611ec286846002611e9e91906145d4565b81518110611eaf57611eae613b0a565b5b602001015160f81c60f81b60f81c612b5f565b611ecc9190614616565b611ed69190614653565b60f81b828281518110611eec57611eeb613b0a565b5b60200101907effffffffffffffffffffffffffffffffffffffffffffffffffffffffffffff1916908160001a905350806001019050611e35565b5080611f31906146d9565b60601c915050919050565b60606000808390505b868690508110156120e0577f3a00000000000000000000000000000000000000000000000000000000000000878783818110611f8457611f83613b0a565b5b9050013560f81c60f81b7effffffffffffffffffffffffffffffffffffffffffffffffffffffffffffff1916036120cd57848051906020012061200c88888080601f016020809104026020016040519081016040528093929190818152602001838380828437600081840152601f19601f820116905080830192505050505050508684611c95565b80519060200120146120345783604051806020016040528060008152509092509250506121fe565b808061203f9061412c565b91505086869050811080156120b157507f200000000000000000000000000000000000000000000000000000000000000087878381811061208357612082613b0a565b5b9050013560f81c60f81b7effffffffffffffffffffffffffffffffffffffffffffffffffffffffffffff1916145b156120c55780806120c19061412c565b9150505b8093506120e0565b80806120d89061412c565b915050611f45565b5b868690508110156121a857600a60f81b87878381811061210457612103613b0a565b5b9050013560f81c60f81b7effffffffffffffffffffffffffffffffffffffffffffffffffffffffffffff19160361219b5761218487878080601f016020809104026020016040519081016040528093929190818152602001838380828437600081840152601f19601f820116905080830192505050505050508583611c95565b6001826121919190613ad6565b92509250506121fe565b80806001019150506120e1565b6121f787878080601f016020809104026020016040519081016040528093929190818152602001838380828437600081840152601f19601f820116905080830192505050505050508583611c95565b8192509250505b94509492505050565b6000806000905060005b835181101561227057603084828151811061222f5761222e613b0a565b5b602001015160f81c60f81b60f81c60ff1661224a919061456f565b600a8361225791906145d4565b6122619190613ad6565b91508080600101915050612211565b5080915050919050565b606060008083905060005b600187879050612295919061456f565b82101561241e577f2d000000000000000000000000000000000000000000000000000000000000008787848181106122d0576122cf613b0a565b5b9050013560f81c60f81b7effffffffffffffffffffffffffffffffffffffffffffffffffffffffffffff191614801561237257507f200000000000000000000000000000000000000000000000000000000000000087876001856123349190613ad6565b81811061234457612343613b0a565b5b9050013560f81c60f81b7effffffffffffffffffffffffffffffffffffffffffffffffffffffffffffff1916145b15612399576002826123849190613ad6565b915080806123919061412c565b91505061239e565b61241e565b5b86869050821080156123f35750600a60f81b8787848181106123c4576123c3613b0a565b5b9050013560f81c60f81b7effffffffffffffffffffffffffffffffffffffffffffffffffffffffffffff191614155b1561240b5781806124039061412c565b92505061239f565b81806124169061412c565b925050612285565b60008167ffffffffffffffff81111561243a57612439613081565b5b60405190808252806020026020018201604052801561246d57816020015b60608152602001906001900390816124585790505b50905085925060005b600189899050612486919061456f565b841080156124945750828114155b15612698577f2d000000000000000000000000000000000000000000000000000000000000008989868181106124cd576124cc613b0a565b5b9050013560f81c60f81b7effffffffffffffffffffffffffffffffffffffffffffffffffffffffffffff191614801561256f57507f200000000000000000000000000000000000000000000000000000000000000089896001876125319190613ad6565b81811061254157612540613b0a565b5b9050013560f81c60f81b7effffffffffffffffffffffffffffffffffffffffffffffffffffffffffffff1916145b15612584576002846125819190613ad6565b96505b5b88889050841080156125d95750600a60f81b8989868181106125aa576125a9613b0a565b5b9050013560f81c60f81b7effffffffffffffffffffffffffffffffffffffffffffffffffffffffffffff191614155b156125f15783806125e99061412c565b945050612585565b61264089898080601f016020809104026020016040519081016040528093929190818152602001838380828437600081840152601f19601f820116905080830192505050505050508886611c95565b82828151811061265357612652613b0a565b5b602002602001018190525080806126699061412c565b91505088889050840361268557838061268190614740565b9450505b83806126909061412c565b945050612476565b50808394509450505050935093915050565b6000806107b290505b8761ffff168161ffff161015612708576126cc81612ece565b156126e8576301e28500826126e19190613ad6565b91506126fb565b6301e13380826126f89190613ad6565b91505b80806001019150506126b3565b612710612ff9565b601f816000600c811061272657612725613b0a565b5b602002019063ffffffff16908163ffffffff168152505061274689612ece565b1561277d57601d816001600c811061276157612760613b0a565b5b602002019063ffffffff16908163ffffffff16815250506127ab565b601c816001600c811061279357612792613b0a565b5b602002019063ffffffff16908163ffffffff16815250505b601f816002600c81106127c1576127c0613b0a565b5b602002019063ffffffff16908163ffffffff1681525050601e816003600c81106127ee576127ed613b0a565b5b602002019063ffffffff16908163ffffffff1681525050601f816004600c811061281b5761281a613b0a565b5b602002019063ffffffff16908163ffffffff1681525050601e816005600c811061284857612847613b0a565b5b602002019063ffffffff16908163ffffffff1681525050601f816006600c811061287557612874613b0a565b5b602002019063ffffffff16908163ffffffff1681525050601f816007600c81106128a2576128a1613b0a565b5b602002019063ffffffff16908163ffffffff1681525050601e816008600c81106128cf576128ce613b0a565b5b602002019063ffffffff16908163ffffffff1681525050601f816009600c81106128fc576128fb613b0a565b5b602002019063ffffffff16908163ffffffff1681525050601e81600a600c811061292957612928613b0a565b5b602002019063ffffffff16908163ffffffff1681525050601f81600b600c811061295657612955613b0a565b5b602002019063ffffffff16908163ffffffff1681525050600191505b8760ff168261ffff1610156129d75762015180816001846129939190614777565b61ffff16600c81106129a8576129a7613b0a565b5b60200201516129b791906147bd565b63ffffffff16836129c89190613ad6565b92508180600101925050612972565b620151806001886129e891906147fa565b60ff166129f591906147bd565b63ffffffff1683612a069190613ad6565b9250610e108660ff16612a1991906147bd565b63ffffffff1683612a2a9190613ad6565b9250603c8560ff16612a3c919061482f565b61ffff1683612a4b9190613ad6565b92508360ff1683612a5c9190613ad6565b925050509695505050505050565b606060008073010000000000000000000000000000000000000473ffffffffffffffffffffffffffffffffffffffff1687878787604051602001612ab194939291906141a3565b604051602081830303815290604052604051612acd9190614227565b600060405180830381855afa9150503d8060008114612b08576040519150601f19603f3d011682016040523d82523d6000602084013e612b0d565b606091505b509150915081612b52576040517f08c379a0000000000000000000000000000000000000000000000000000000008152600401612b49906148b8565b60405180910390fd5b8092505050949350505050565b60007f30000000000000000000000000000000000000000000000000000000000000007effffffffffffffffffffffffffffffffffffffffffffffffffffffffffffff19168260f81b7effffffffffffffffffffffffffffffffffffffffffffffffffffffffffffff191610158015612c3f57507f39000000000000000000000000000000000000000000000000000000000000007effffffffffffffffffffffffffffffffffffffffffffffffffffffffffffff19168260f81b7effffffffffffffffffffffffffffffffffffffffffffffffffffffffffffff191611155b15612c7a577f300000000000000000000000000000000000000000000000000000000000000060f81c82612c7391906147fa565b9050612ec9565b7f61000000000000000000000000000000000000000000000000000000000000007effffffffffffffffffffffffffffffffffffffffffffffffffffffffffffff19168260f81b7effffffffffffffffffffffffffffffffffffffffffffffffffffffffffffff191610158015612d5857507f66000000000000000000000000000000000000000000000000000000000000007effffffffffffffffffffffffffffffffffffffffffffffffffffffffffffff19168260f81b7effffffffffffffffffffffffffffffffffffffffffffffffffffffffffffff191611155b15612d9f577f610000000000000000000000000000000000000000000000000000000000000060f81c82600a612d8e9190614653565b612d9891906147fa565b9050612ec9565b7f41000000000000000000000000000000000000000000000000000000000000007effffffffffffffffffffffffffffffffffffffffffffffffffffffffffffff19168260f81b7effffffffffffffffffffffffffffffffffffffffffffffffffffffffffffff191610158015612e7d57507f46000000000000000000000000000000000000000000000000000000000000007effffffffffffffffffffffffffffffffffffffffffffffffffffffffffffff19168260f81b7effffffffffffffffffffffffffffffffffffffffffffffffffffffffffffff191611155b15612ec4577f410000000000000000000000000000000000000000000000000000000000000060f81c82600a612eb39190614653565b612ebd91906147fa565b9050612ec9565b600090505b919050565b600080600483612ede91906148d8565b61ffff1614612ef05760009050612f38565b6000606483612eff91906148d8565b61ffff1614612f115760019050612f38565b600061019083612f2191906148d8565b61ffff1614612f335760009050612f38565b600190505b919050565b6040518060a0016040528060608152602001600073ffffffffffffffffffffffffffffffffffffffff1681526020016000815260200160608152602001606081525090565b60405180610180016040528060608152602001600073ffffffffffffffffffffffffffffffffffffffff168152602001606081526020016060815260200160608152602001600081526020016060815260200160608152602001606081526020016060815260200160608152602001606081525090565b604051806101800160405280600c90602082028036833780820191505090505090565b6000604051905090565b600080fd5b600080fd5b6000819050919050565b61304381613030565b811461304e57600080fd5b50565b6000813590506130608161303a565b92915050565b600080fd5b600080fd5b6000601f19601f8301169050919050565b7f4e487b7100000000000000000000000000000000000000000000000000000000600052604160045260246000fd5b6130b982613070565b810181811067ffffffffffffffff821117156130d8576130d7613081565b5b80604052505050565b60006130eb61301c565b90506130f782826130b0565b919050565b600067ffffffffffffffff82111561311757613116613081565b5b61312082613070565b9050602081019050919050565b82818337600083830152505050565b600061314f61314a846130fc565b6130e1565b90508281526020810184848401111561316b5761316a61306b565b5b61317684828561312d565b509392505050565b600082601f83011261319357613192613066565b5b81356131a384826020860161313c565b91505092915050565b600080604083850312156131c3576131c2613026565b5b60006131d185828601613051565b925050602083013567ffffffffffffffff8111156131f2576131f161302b565b5b6131fe8582860161317e565b9150509250929050565b600081519050919050565b600082825260208201905092915050565b60005b83811015613242578082015181840152602081019050613227565b60008484015250505050565b600061325982613208565b6132638185613213565b9350613273818560208601613224565b61327c81613070565b840191505092915050565b600060208201905081810360008301526132a1818461324e565b905092915050565b6000602082840312156132bf576132be613026565b5b60006132cd84828501613051565b91505092915050565b600081519050919050565b600082825260208201905092915050565b6000819050602082019050919050565b61330b81613030565b82525050565b600061331d8383613302565b60208301905092915050565b6000602082019050919050565b6000613341826132d6565b61334b81856132e1565b9350613356836132f2565b8060005b8381101561338757815161336e8882613311565b975061337983613329565b92505060018101905061335a565b5085935050505092915050565b600060208201905081810360008301526133ae8184613336565b905092915050565b6133bf81613030565b82525050565b60006020820190506133da60008301846133b6565b92915050565b600080fd5b600080fd5b60008083601f840112613400576133ff613066565b5b8235905067ffffffffffffffff81111561341d5761341c6133e0565b5b602083019150836001820283011115613439576134386133e5565b5b9250929050565b600080fd5b60006060828403121561345b5761345a613440565b5b81905092915050565b60008060006080848603121561347d5761347c613026565b5b600084013567ffffffffffffffff81111561349b5761349a61302b565b5b6134a7868287016133ea565b935093505060206134ba86828701613445565b9150509250925092565b600081519050919050565b600082825260208201905092915050565b60006134eb826134c4565b6134f581856134cf565b9350613505818560208601613224565b61350e81613070565b840191505092915050565b6000602082019050818103600083015261353381846134e0565b905092915050565b600073ffffffffffffffffffffffffffffffffffffffff82169050919050565b60006135668261353b565b9050919050565b6135768161355b565b82525050565b6000602082019050613591600083018461356d565b92915050565b600067ffffffffffffffff8211156135b2576135b1613081565b5b6135bb82613070565b9050602081019050919050565b60006135db6135d684613597565b6130e1565b9050828152602081018484840111156135f7576135f661306b565b5b61360284828561312d565b509392505050565b600082601f83011261361f5761361e613066565b5b813561362f8482602086016135c8565b91505092915050565b6000806040838503121561364f5761364e613026565b5b600083013567ffffffffffffffff81111561366d5761366c61302b565b5b6136798582860161360a565b925050602061368a85828601613051565b9150509250929050565b7f4e487b7100000000000000000000000000000000000000000000000000000000600052602160045260246000fd5b600381106136d4576136d3613694565b5b50565b60008190506136e5826136c3565b919050565b60006136f5826136d7565b9050919050565b613705816136ea565b82525050565b600060408201905061372060008301856133b6565b61372d60208301846136fc565b9392505050565b7f4e4f545f415554484f52495a4544000000000000000000000000000000000000600082015250565b600061376a600e83613213565b915061377582613734565b602082019050919050565b600060208201905081810360008301526137998161375d565b9050919050565b7f4e487b7100000000000000000000000000000000000000000000000000000000600052602260045260246000fd5b600060028204905060018216806137e757607f821691505b6020821081036137fa576137f96137a0565b5b50919050565b7f4e4545445f544f5f42455f4c4f434b0000000000000000000000000000000000600082015250565b6000613836600f83613213565b915061384182613800565b602082019050919050565b6000602082019050818103600083015261386581613829565b9050919050565b600060408201905061388160008301856133b6565b61388e602083018461356d565b9392505050565b600081905092915050565b7f19457468657265756d205369676e6564204d6573736167653a0a000000000000600082015250565b60006138d6601a83613895565b91506138e1826138a0565b601a82019050919050565b60006138f782613208565b6139018185613895565b9350613911818560208601613224565b80840191505092915050565b60006139298385613895565b935061393683858461312d565b82840190509392505050565b600061394d826138c9565b915061395982866138ec565b915061396682848661391d565b9150819050949350505050565b6000819050919050565b61398681613973565b82525050565b600060ff82169050919050565b6139a28161398c565b82525050565b60006080820190506139bd600083018761397d565b6139ca6020830186613999565b6139d7604083018561397d565b6139e4606083018461397d565b95945050505050565b600081905092915050565b60008190508160005260206000209050919050565b60008154613a1a816137cf565b613a2481866139ed565b94506001821660008114613a3f5760018114613a5457613a87565b60ff1983168652811515820286019350613a87565b613a5d856139f8565b60005b83811015613a7f57815481890152600182019150602081019050613a60565b838801955050505b50505092915050565b6000613a9c8284613a0d565b915081905092915050565b7f4e487b7100000000000000000000000000000000000000000000000000000000600052601160045260246000fd5b6000613ae182613030565b9150613aec83613030565b9250828201905080821115613b0457613b03613aa7565b5b92915050565b7f4e487b7100000000000000000000000000000000000000000000000000000000600052603260045260246000fd5b600082825260208201905092915050565b6000613b5582613208565b613b5f8185613b39565b9350613b6f818560208601613224565b613b7881613070565b840191505092915050565b613b8c8161355b565b82525050565b600081519050919050565b600082825260208201905092915050565b6000819050602082019050919050565b6000613bca8383613b4a565b905092915050565b6000602082019050919050565b6000613bea82613b92565b613bf48185613b9d565b935083602082028501613c0685613bae565b8060005b85811015613c425784840389528151613c238582613bbe565b9450613c2e83613bd2565b925060208a01995050600181019050613c0a565b50829750879550505050505092915050565b600060a0830160008301518482036000860152613c718282613b4a565b9150506020830151613c866020860182613b83565b506040830151613c996040860182613302565b5060608301518482036060860152613cb18282613b4a565b91505060808301518482036080860152613ccb8282613bdf565b9150508091505092915050565b60006020820190508181036000830152613cf28184613c54565b905092915050565b6000613d0682846138ec565b915081905092915050565b7f4e4f5f535542534352495054494f4e0000000000000000000000000000000000600082015250565b6000613d47600f83613213565b9150613d5282613d11565b602082019050919050565b60006020820190508181036000830152613d7681613d3a565b9050919050565b6000604082019050613d92600083018561356d565b613d9f60208301846133b6565b9392505050565b60008115159050919050565b613dbb81613da6565b8114613dc657600080fd5b50565b600081519050613dd881613db2565b92915050565b600060208284031215613df457613df3613026565b5b6000613e0284828501613dc9565b91505092915050565b7f414c52454144595f555345445f48414e444c4500000000000000000000000000600082015250565b6000613e41601383613213565b9150613e4c82613e0b565b602082019050919050565b60006020820190508181036000830152613e7081613e34565b9050919050565b6000606082019050613e8c600083018661356d565b613e99602083018561356d565b613ea660408301846133b6565b949350505050565b60008190508160005260206000209050919050565b60006020601f8301049050919050565b600082821b905092915050565b600060088302613f107fffffffffffffffffffffffffffffffffffffffffffffffffffffffffffffffff82613ed3565b613f1a8683613ed3565b95508019841693508086168417925050509392505050565b6000819050919050565b6000613f57613f52613f4d84613030565b613f32565b613030565b9050919050565b6000819050919050565b613f7183613f3c565b613f85613f7d82613f5e565b848454613ee0565b825550505050565b600090565b613f9a613f8d565b613fa5818484613f68565b505050565b5b81811015613fc957613fbe600082613f92565b600181019050613fab565b5050565b601f82111561400e57613fdf81613eae565b613fe884613ec3565b81016020851015613ff7578190505b61400b61400385613ec3565b830182613faa565b50505b505050565b600082821c905092915050565b600061403160001984600802614013565b1980831691505092915050565b600061404a8383614020565b9150826002028217905092915050565b61406382613208565b67ffffffffffffffff81111561407c5761407b613081565b5b61408682546137cf565b614091828285613fcd565b600060209050601f8311600181146140c457600084156140b2578287015190505b6140bc858261403e565b865550614124565b601f1984166140d286613eae565b60005b828110156140fa578489015182556001820191506020850194506020810190506140d5565b868310156141175784890151614113601f891682614020565b8355505b6001600288020188555050505b505050505050565b600061413782613030565b91507fffffffffffffffffffffffffffffffffffffffffffffffffffffffffffffffff820361416957614168613aa7565b5b600182019050919050565b7f4e487b7100000000000000000000000000000000000000000000000000000000600052601260045260246000fd5b60006080820190506141b8600083018761397d565b6141c5602083018661397d565b81810360408301526141d781856134e0565b905081810360608301526141eb81846134e0565b905095945050505050565b6000614201826134c4565b61420b81856139ed565b935061421b818560208601613224565b80840191505092915050565b600061423382846141f6565b915081905092915050565b7f656e63727970743a206661696c65640000000000000000000000000000000000600082015250565b6000614274600f83613213565b915061427f8261423e565b602082019050919050565b600060208201905081810360008301526142a381614267565b9050919050565b600080fd5b600080fd5b60006142c76142c284613597565b6130e1565b9050828152602081018484840111156142e3576142e261306b565b5b6142ee848285613224565b509392505050565b600082601f83011261430b5761430a613066565b5b815161431b8482602086016142b4565b91505092915050565b61432d8161355b565b811461433857600080fd5b50565b60008151905061434a81614324565b92915050565b60008151905061435f8161303a565b92915050565b600067ffffffffffffffff8211156143805761437f613081565b5b602082029050602081019050919050565b60006143a461439f84614365565b6130e1565b905080838252602082019050602084028301858111156143c7576143c66133e5565b5b835b8181101561440e57805167ffffffffffffffff8111156143ec576143eb613066565b5b8086016143f989826142f6565b855260208501945050506020810190506143c9565b5050509392505050565b600082601f83011261442d5761442c613066565b5b815161443d848260208601614391565b91505092915050565b600060a0828403121561445c5761445b6142aa565b5b61446660a06130e1565b9050600082015167ffffffffffffffff811115614486576144856142af565b5b614492848285016142f6565b60008301525060206144a68482850161433b565b60208301525060406144ba84828501614350565b604083015250606082015167ffffffffffffffff8111156144de576144dd6142af565b5b6144ea848285016142f6565b606083015250608082015167ffffffffffffffff81111561450e5761450d6142af565b5b61451a84828501614418565b60808301525092915050565b60006020828403121561453c5761453b613026565b5b600082015167ffffffffffffffff81111561455a5761455961302b565b5b61456684828501614446565b91505092915050565b600061457a82613030565b915061458583613030565b925082820390508181111561459d5761459c613aa7565b5b92915050565b60006145ae82613030565b91506145b983613030565b9250826145c9576145c8614174565b5b828204905092915050565b60006145df82613030565b91506145ea83613030565b92508282026145f881613030565b9150828204841483151761460f5761460e613aa7565b5b5092915050565b60006146218261398c565b915061462c8361398c565b925082820261463a8161398c565b915080821461464c5761464b613aa7565b5b5092915050565b600061465e8261398c565b91506146698361398c565b9250828201905060ff81111561468257614681613aa7565b5b92915050565b6000819050602082019050919050565b60007fffffffffffffffffffffffffffffffffffffffff00000000000000000000000082169050919050565b60006146d08251614698565b80915050919050565b60006146e4826134c4565b826146ee84614688565b90506146f9816146c4565b92506014821015614739576147347fffffffffffffffffffffffffffffffffffffffff00000000000000000000000083601403600802613ed3565b831692505b5050919050565b600061474b82613030565b91506000820361475e5761475d613aa7565b5b600182039050919050565b600061ffff82169050919050565b600061478282614769565b915061478d83614769565b9250828203905061ffff8111156147a7576147a6613aa7565b5b92915050565b600063ffffffff82169050919050565b60006147c8826147ad565b91506147d3836147ad565b92508282026147e1816147ad565b91508082146147f3576147f2613aa7565b5b5092915050565b60006148058261398c565b91506148108361398c565b9250828203905060ff81111561482957614828613aa7565b5b92915050565b600061483a82614769565b915061484583614769565b925082820261485381614769565b915080821461486557614864613aa7565b5b5092915050565b7f646563727970743a206661696c65640000000000000000000000000000000000600082015250565b60006148a2600f83613213565b91506148ad8261486c565b602082019050919050565b600060208201905081810360008301526148d181614895565b9050919050565b60006148e382614769565b91506148ee83614769565b9250826148fe576148fd614174565b5b82820690509291505056fea2646970667358221220d547fa4a608e4d0b1eecb325c68559a7dd6d7547b5c0ea2e2253be66c3b3cf3264736f6c634300081c0033",
    "linkReferences": {},
    "deployedLinkReferences": {}
}