{
  "_format": "hh-sol-artifact-1",
  "contractName": "Escrow",
  "sourceName": "contracts/Escrow.sol",
  "abi": [
    {
      "inputs": [
        {
          "internalType": "address",
          "name": "_usdc",
          "type": "address"
        }
      ],
      "stateMutability": "nonpayable",
      "type": "constructor"
    },
    {
      "inputs": [],
      "name": "InsufficientFund",
      "type": "error"
    },
    {
      "inputs": [],
      "name": "USDC",
      "outputs": [
        {
          "internalType": "address",
          "name": "",
          "type": "address"
        }
      ],
      "stateMutability": "view",
      "type": "function"
    },
    {
      "inputs": [
        {
          "internalType": "uint256",
          "name": "",
          "type": "uint256"
        }
      ],
      "name": "activeEntries",
      "outputs": [
        {
          "internalType": "uint256",
          "name": "",
          "type": "uint256"
        }
      ],
      "stateMutability": "view",
      "type": "function"
    },
    {
      "inputs": [
        {
          "internalType": "string",
          "name": "paypalHandle",
          "type": "string"
        },
        {
          "internalType": "uint256",
          "name": "amount",
          "type": "uint256"
        }
      ],
      "name": "createEntry",
      "outputs": [],
      "stateMutability": "nonpayable",
      "type": "function"
    },
    {
      "inputs": [],
      "name": "getActiveEntries",
      "outputs": [
        {
          "internalType": "uint256[]",
          "name": "",
          "type": "uint256[]"
        }
      ],
      "stateMutability": "view",
      "type": "function"
    },
    {
      "inputs": [
        {
          "internalType": "uint256",
          "name": "id",
          "type": "uint256"
        }
      ],
      "name": "getEntry",
      "outputs": [
        {
          "internalType": "uint256",
          "name": "",
          "type": "uint256"
        },
        {
          "internalType": "enum Escrow.Status",
          "name": "",
          "type": "uint8"
        }
      ],
      "stateMutability": "view",
      "type": "function"
    },
    {
      "inputs": [
        {
          "internalType": "string",
          "name": "handle",
          "type": "string"
        },
        {
          "internalType": "uint256",
          "name": "amount",
          "type": "uint256"
        }
      ],
      "name": "proofOfPaiement",
      "outputs": [],
      "stateMutability": "nonpayable",
      "type": "function"
    },
    {
      "inputs": [
        {
          "internalType": "uint256",
          "name": "id",
          "type": "uint256"
        }
      ],
      "name": "subscribe",
      "outputs": [],
      "stateMutability": "nonpayable",
      "type": "function"
    }
  ],
  "bytecode": "0x608060405234801561001057600080fd5b50604051611511380380611511833981810160405281019061003291906100db565b806000806101000a81548173ffffffffffffffffffffffffffffffffffffffff021916908373ffffffffffffffffffffffffffffffffffffffff16021790555050610108565b600080fd5b600073ffffffffffffffffffffffffffffffffffffffff82169050919050565b60006100a88261007d565b9050919050565b6100b88161009d565b81146100c357600080fd5b50565b6000815190506100d5816100af565b92915050565b6000602082840312156100f1576100f0610078565b5b60006100ff848285016100c6565b91505092915050565b6113fa806101176000396000f3fe608060405234801561001057600080fd5b506004361061007d5760003560e01c806389a302711161005b57806389a30271146100ec5780639432f56f1461010a578063bae78d7b14610126578063e6af705f146101575761007d565b80630f574ba7146100825780631c503ae61461009e5780635ee842dc146100bc575b600080fd5b61009c600480360381019061009791906109f8565b610173565b005b6100a66102a9565b6040516100b39190610ae3565b60405180910390f35b6100d660048036038101906100d191906109f8565b610301565b6040516100e39190610b14565b60405180910390f35b6100f4610325565b6040516101019190610b70565b60405180910390f35b610124600480360381019061011f9190610cd1565b610349565b005b610140600480360381019061013b91906109f8565b6105e1565b60405161014e929190610da4565b60405180910390f35b610171600480360381019061016c9190610cd1565b610747565b005b600073ffffffffffffffffffffffffffffffffffffffff166004600083815260200190815260200160002060009054906101000a900473ffffffffffffffffffffffffffffffffffffffff1673ffffffffffffffffffffffffffffffffffffffff1614610215576040517f08c379a000000000000000000000000000000000000000000000000000000000815260040161020c90610e2a565b60405180910390fd5b336004600083815260200190815260200160002060006101000a81548173ffffffffffffffffffffffffffffffffffffffff021916908373ffffffffffffffffffffffffffffffffffffffff16021790555060016002600083815260200190815260200160002060030160006101000a81548160ff021916908360028111156102a1576102a0610d2d565b5b021790555050565b606060058054806020026020016040519081016040528092919081815260200182805480156102f757602002820191906000526020600020905b8154815260200190600101908083116102e3575b5050505050905090565b6005818154811061031157600080fd5b906000526020600020016000915090505481565b60008054906101000a900473ffffffffffffffffffffffffffffffffffffffff1681565b600060038360405161035b9190610ebb565b908152602001604051809103902054905060026000828152602001908152602001600020600201548210156103bc576040517fd44b3c6200000000000000000000000000000000000000000000000000000000815260040160405180910390fd5b600073ffffffffffffffffffffffffffffffffffffffff166004600083815260200190815260200160002060009054906101000a900473ffffffffffffffffffffffffffffffffffffffff1673ffffffffffffffffffffffffffffffffffffffff160361045e576040517f08c379a000000000000000000000000000000000000000000000000000000000815260040161045590610f1e565b60405180910390fd5b60008054906101000a900473ffffffffffffffffffffffffffffffffffffffff1673ffffffffffffffffffffffffffffffffffffffff1663a9059cbb6004600084815260200190815260200160002060009054906101000a900473ffffffffffffffffffffffffffffffffffffffff1660026000858152602001908152602001600020600201546040518363ffffffff1660e01b8152600401610502929190610f3e565b6020604051808303816000875af1158015610521573d6000803e3d6000fd5b505050506040513d601f19601f820116820180604052508101906105459190610f9f565b50600280600083815260200190815260200160002060030160006101000a81548160ff0219169083600281111561057f5761057e610d2d565b5b02179055506004600082815260200190815260200160002060006101000a81549073ffffffffffffffffffffffffffffffffffffffff02191690556003836040516105ca9190610ebb565b908152602001604051809103902060009055505050565b6000806000600260008581526020019081526020016000206040518060800160405290816000820160009054906101000a900473ffffffffffffffffffffffffffffffffffffffff1673ffffffffffffffffffffffffffffffffffffffff1673ffffffffffffffffffffffffffffffffffffffff16815260200160018201805461066a90610ffb565b80601f016020809104026020016040519081016040528092919081815260200182805461069690610ffb565b80156106e35780601f106106b8576101008083540402835291602001916106e3565b820191906000526020600020905b8154815290600101906020018083116106c657829003601f168201915b50505050508152602001600282015481526020016003820160009054906101000a900460ff16600281111561071b5761071a610d2d565b5b600281111561072d5761072c610d2d565b5b815250509050806040015181606001519250925050915091565b60006003836040516107599190610ebb565b908152602001604051809103902054146107a8576040517f08c379a000000000000000000000000000000000000000000000000000000000815260040161079f90611078565b60405180910390fd5b60008054906101000a900473ffffffffffffffffffffffffffffffffffffffff1673ffffffffffffffffffffffffffffffffffffffff166323b872dd3330846040518463ffffffff1660e01b815260040161080593929190611098565b6020604051808303816000875af1158015610824573d6000803e3d6000fd5b505050506040513d601f19601f820116820180604052508101906108489190610f9f565b5060405180608001604052803373ffffffffffffffffffffffffffffffffffffffff168152602001838152602001828152602001600060028111156108905761088f610d2d565b5b81525060026000600154815260200190815260200160002060008201518160000160006101000a81548173ffffffffffffffffffffffffffffffffffffffff021916908373ffffffffffffffffffffffffffffffffffffffff1602179055506020820151816001019081610904919061127b565b506040820151816002015560608201518160030160006101000a81548160ff0219169083600281111561093a57610939610d2d565b5b02179055509050506001546003836040516109559190610ebb565b90815260200160405180910390208190555060056001549080600181540180825580915050600190039060005260206000200160009091909190915055600160008154809291906109a59061137c565b91905055505050565b6000604051905090565b600080fd5b600080fd5b6000819050919050565b6109d5816109c2565b81146109e057600080fd5b50565b6000813590506109f2816109cc565b92915050565b600060208284031215610a0e57610a0d6109b8565b5b6000610a1c848285016109e3565b91505092915050565b600081519050919050565b600082825260208201905092915050565b6000819050602082019050919050565b610a5a816109c2565b82525050565b6000610a6c8383610a51565b60208301905092915050565b6000602082019050919050565b6000610a9082610a25565b610a9a8185610a30565b9350610aa583610a41565b8060005b83811015610ad6578151610abd8882610a60565b9750610ac883610a78565b925050600181019050610aa9565b5085935050505092915050565b60006020820190508181036000830152610afd8184610a85565b905092915050565b610b0e816109c2565b82525050565b6000602082019050610b296000830184610b05565b92915050565b600073ffffffffffffffffffffffffffffffffffffffff82169050919050565b6000610b5a82610b2f565b9050919050565b610b6a81610b4f565b82525050565b6000602082019050610b856000830184610b61565b92915050565b600080fd5b600080fd5b6000601f19601f8301169050919050565b7f4e487b7100000000000000000000000000000000000000000000000000000000600052604160045260246000fd5b610bde82610b95565b810181811067ffffffffffffffff82111715610bfd57610bfc610ba6565b5b80604052505050565b6000610c106109ae565b9050610c1c8282610bd5565b919050565b600067ffffffffffffffff821115610c3c57610c3b610ba6565b5b610c4582610b95565b9050602081019050919050565b82818337600083830152505050565b6000610c74610c6f84610c21565b610c06565b905082815260208101848484011115610c9057610c8f610b90565b5b610c9b848285610c52565b509392505050565b600082601f830112610cb857610cb7610b8b565b5b8135610cc8848260208601610c61565b91505092915050565b60008060408385031215610ce857610ce76109b8565b5b600083013567ffffffffffffffff811115610d0657610d056109bd565b5b610d1285828601610ca3565b9250506020610d23858286016109e3565b9150509250929050565b7f4e487b7100000000000000000000000000000000000000000000000000000000600052602160045260246000fd5b60038110610d6d57610d6c610d2d565b5b50565b6000819050610d7e82610d5c565b919050565b6000610d8e82610d70565b9050919050565b610d9e81610d83565b82525050565b6000604082019050610db96000830185610b05565b610dc66020830184610d95565b9392505050565b600082825260208201905092915050565b7f4e4545445f544f5f42455f4c4f434b0000000000000000000000000000000000600082015250565b6000610e14600f83610dcd565b9150610e1f82610dde565b602082019050919050565b60006020820190508181036000830152610e4381610e07565b9050919050565b600081519050919050565b600081905092915050565b60005b83811015610e7e578082015181840152602081019050610e63565b60008484015250505050565b6000610e9582610e4a565b610e9f8185610e55565b9350610eaf818560208601610e60565b80840191505092915050565b6000610ec78284610e8a565b915081905092915050565b7f4e4f5f535542534352495054494f4e0000000000000000000000000000000000600082015250565b6000610f08600f83610dcd565b9150610f1382610ed2565b602082019050919050565b60006020820190508181036000830152610f3781610efb565b9050919050565b6000604082019050610f536000830185610b61565b610f606020830184610b05565b9392505050565b60008115159050919050565b610f7c81610f67565b8114610f8757600080fd5b50565b600081519050610f9981610f73565b92915050565b600060208284031215610fb557610fb46109b8565b5b6000610fc384828501610f8a565b91505092915050565b7f4e487b7100000000000000000000000000000000000000000000000000000000600052602260045260246000fd5b6000600282049050600182168061101357607f821691505b60208210810361102657611025610fcc565b5b50919050565b7f414c52454144595f555345445f48414e444c4500000000000000000000000000600082015250565b6000611062601383610dcd565b915061106d8261102c565b602082019050919050565b6000602082019050818103600083015261109181611055565b9050919050565b60006060820190506110ad6000830186610b61565b6110ba6020830185610b61565b6110c76040830184610b05565b949350505050565b60008190508160005260206000209050919050565b60006020601f8301049050919050565b600082821b905092915050565b6000600883026111317fffffffffffffffffffffffffffffffffffffffffffffffffffffffffffffffff826110f4565b61113b86836110f4565b95508019841693508086168417925050509392505050565b6000819050919050565b600061117861117361116e846109c2565b611153565b6109c2565b9050919050565b6000819050919050565b6111928361115d565b6111a661119e8261117f565b848454611101565b825550505050565b600090565b6111bb6111ae565b6111c6818484611189565b505050565b5b818110156111ea576111df6000826111b3565b6001810190506111cc565b5050565b601f82111561122f57611200816110cf565b611209846110e4565b81016020851015611218578190505b61122c611224856110e4565b8301826111cb565b50505b505050565b600082821c905092915050565b600061125260001984600802611234565b1980831691505092915050565b600061126b8383611241565b9150826002028217905092915050565b61128482610e4a565b67ffffffffffffffff81111561129d5761129c610ba6565b5b6112a78254610ffb565b6112b28282856111ee565b600060209050601f8311600181146112e557600084156112d3578287015190505b6112dd858261125f565b865550611345565b601f1984166112f3866110cf565b60005b8281101561131b578489015182556001820191506020850194506020810190506112f6565b868310156113385784890151611334601f891682611241565b8355505b6001600288020188555050505b505050505050565b7f4e487b7100000000000000000000000000000000000000000000000000000000600052601160045260246000fd5b6000611387826109c2565b91507fffffffffffffffffffffffffffffffffffffffffffffffffffffffffffffffff82036113b9576113b861134d565b5b60018201905091905056fea2646970667358221220a5002b5af6fd9941637076f524c1d9dfbefb9e281fa2329925e5bbb759d00ea464736f6c634300081c0033",
  "linkReferences": {},
  "deployedLinkReferences": {}
}