{"abi":[{"type":"constructor","inputs":[{"name":"_usdc","type":"address","internalType":"address"}],"stateMutability":"nonpayable"},{"type":"function","name":"USDC","inputs":[],"outputs":[{"name":"","type":"address","internalType":"address"}],"stateMutability":"view"},{"type":"function","name":"activeEntries","inputs":[{"name":"","type":"uint256","internalType":"uint256"}],"outputs":[{"name":"","type":"uint256","internalType":"uint256"}],"stateMutability":"view"},{"type":"function","name":"createEntry","inputs":[{"name":"paypalHandle","type":"string","internalType":"string"},{"name":"amount","type":"uint256","internalType":"uint256"}],"outputs":[],"stateMutability":"nonpayable"},{"type":"function","name":"getActiveEntries","inputs":[],"outputs":[{"name":"","type":"uint256[]","internalType":"uint256[]"}],"stateMutability":"view"},{"type":"function","name":"getEntry","inputs":[{"name":"id","type":"uint256","internalType":"uint256"}],"outputs":[{"name":"","type":"uint256","internalType":"uint256"},{"name":"","type":"uint8","internalType":"enum Escrow.Status"}],"stateMutability":"view"},{"type":"function","name":"proofOfPaiement","inputs":[{"name":"handle","type":"string","internalType":"string"},{"name":"amount","type":"uint256","internalType":"uint256"}],"outputs":[],"stateMutability":"nonpayable"},{"type":"function","name":"subscribe","inputs":[{"name":"id","type":"uint256","internalType":"uint256"}],"outputs":[],"stateMutability":"nonpayable"},{"type":"error","name":"InsufficientFund","inputs":[]}],"bytecode":{"object":"0x608060405234801561000f575f5ffd5b50604051611451380380611451833981810160405281019061003191906100d4565b805f5f6101000a81548173ffffffffffffffffffffffffffffffffffffffff021916908373ffffffffffffffffffffffffffffffffffffffff160217905550506100ff565b5f5ffd5b5f73ffffffffffffffffffffffffffffffffffffffff82169050919050565b5f6100a38261007a565b9050919050565b6100b381610099565b81146100bd575f5ffd5b50565b5f815190506100ce816100aa565b92915050565b5f602082840312156100e9576100e8610076565b5b5f6100f6848285016100c0565b91505092915050565b6113458061010c5f395ff3fe608060405234801561000f575f5ffd5b506004361061007b575f3560e01c806389a302711161005957806389a30271146100e95780639432f56f14610107578063bae78d7b14610123578063e6af705f146101545761007b565b80630f574ba71461007f5780631c503ae61461009b5780635ee842dc146100b9575b5f5ffd5b610099600480360381019061009491906109b1565b610170565b005b6100a361029c565b6040516100b09190610a93565b60405180910390f35b6100d360048036038101906100ce91906109b1565b6102f2565b6040516100e09190610ac2565b60405180910390f35b6100f1610312565b6040516100fe9190610b1a565b60405180910390f35b610121600480360381019061011c9190610c6f565b610336565b005b61013d600480360381019061013891906109b1565b6105b8565b60405161014b929190610d3c565b60405180910390f35b61016e60048036038101906101699190610c6f565b610715565b005b5f73ffffffffffffffffffffffffffffffffffffffff1660045f8381526020019081526020015f205f9054906101000a900473ffffffffffffffffffffffffffffffffffffffff1673ffffffffffffffffffffffffffffffffffffffff161461020e576040517f08c379a000000000000000000000000000000000000000000000000000000000815260040161020590610dbd565b60405180910390fd5b3360045f8381526020019081526020015f205f6101000a81548173ffffffffffffffffffffffffffffffffffffffff021916908373ffffffffffffffffffffffffffffffffffffffff160217905550600160025f8381526020019081526020015f206003015f6101000a81548160ff0219169083600281111561029457610293610cc9565b5b021790555050565b606060058054806020026020016040519081016040528092919081815260200182805480156102e857602002820191905f5260205f20905b8154815260200190600101908083116102d4575b5050505050905090565b60058181548110610301575f80fd5b905f5260205f20015f915090505481565b5f5f9054906101000a900473ffffffffffffffffffffffffffffffffffffffff1681565b5f6003836040516103479190610e2d565b908152602001604051809103902054905060025f8281526020019081526020015f20600201548210156103a6576040517fd44b3c6200000000000000000000000000000000000000000000000000000000815260040160405180910390fd5b5f73ffffffffffffffffffffffffffffffffffffffff1660045f8381526020019081526020015f205f9054906101000a900473ffffffffffffffffffffffffffffffffffffffff1673ffffffffffffffffffffffffffffffffffffffff1603610444576040517f08c379a000000000000000000000000000000000000000000000000000000000815260040161043b90610e8d565b60405180910390fd5b5f5f9054906101000a900473ffffffffffffffffffffffffffffffffffffffff1673ffffffffffffffffffffffffffffffffffffffff1663a9059cbb60045f8481526020019081526020015f205f9054906101000a900473ffffffffffffffffffffffffffffffffffffffff1660025f8581526020019081526020015f20600201546040518363ffffffff1660e01b81526004016104e3929190610eab565b6020604051808303815f875af11580156104ff573d5f5f3e3d5ffd5b505050506040513d601f19601f820116820180604052508101906105239190610f07565b506002805f8381526020019081526020015f206003015f6101000a81548160ff0219169083600281111561055a57610559610cc9565b5b021790555060045f8281526020019081526020015f205f6101000a81549073ffffffffffffffffffffffffffffffffffffffff02191690556003836040516105a29190610e2d565b90815260200160405180910390205f9055505050565b5f5f5f60025f8581526020019081526020015f206040518060800160405290815f82015f9054906101000a900473ffffffffffffffffffffffffffffffffffffffff1673ffffffffffffffffffffffffffffffffffffffff1673ffffffffffffffffffffffffffffffffffffffff16815260200160018201805461063b90610f5f565b80601f016020809104026020016040519081016040528092919081815260200182805461066790610f5f565b80156106b25780601f10610689576101008083540402835291602001916106b2565b820191905f5260205f20905b81548152906001019060200180831161069557829003601f168201915b5050505050815260200160028201548152602001600382015f9054906101000a900460ff1660028111156106e9576106e8610cc9565b5b60028111156106fb576106fa610cc9565b5b815250509050806040015181606001519250925050915091565b5f6003836040516107269190610e2d565b90815260200160405180910390205414610775576040517f08c379a000000000000000000000000000000000000000000000000000000000815260040161076c90610fd9565b60405180910390fd5b5f5f9054906101000a900473ffffffffffffffffffffffffffffffffffffffff1673ffffffffffffffffffffffffffffffffffffffff166323b872dd3330846040518463ffffffff1660e01b81526004016107d293929190610ff7565b6020604051808303815f875af11580156107ee573d5f5f3e3d5ffd5b505050506040513d601f19601f820116820180604052508101906108129190610f07565b5060405180608001604052803373ffffffffffffffffffffffffffffffffffffffff1681526020018381526020018281526020015f600281111561085957610858610cc9565b5b81525060025f60015481526020019081526020015f205f820151815f015f6101000a81548173ffffffffffffffffffffffffffffffffffffffff021916908373ffffffffffffffffffffffffffffffffffffffff16021790555060208201518160010190816108c891906111cc565b50604082015181600201556060820151816003015f6101000a81548160ff021916908360028111156108fd576108fc610cc9565b5b02179055509050506001546003836040516109189190610e2d565b9081526020016040518091039020819055506005600154908060018154018082558091505060019003905f5260205f20015f909190919091505560015f815480929190610964906112c8565b91905055505050565b5f604051905090565b5f5ffd5b5f5ffd5b5f819050919050565b6109908161097e565b811461099a575f5ffd5b50565b5f813590506109ab81610987565b92915050565b5f602082840312156109c6576109c5610976565b5b5f6109d38482850161099d565b91505092915050565b5f81519050919050565b5f82825260208201905092915050565b5f819050602082019050919050565b610a0e8161097e565b82525050565b5f610a1f8383610a05565b60208301905092915050565b5f602082019050919050565b5f610a41826109dc565b610a4b81856109e6565b9350610a56836109f6565b805f5b83811015610a86578151610a6d8882610a14565b9750610a7883610a2b565b925050600181019050610a59565b5085935050505092915050565b5f6020820190508181035f830152610aab8184610a37565b905092915050565b610abc8161097e565b82525050565b5f602082019050610ad55f830184610ab3565b92915050565b5f73ffffffffffffffffffffffffffffffffffffffff82169050919050565b5f610b0482610adb565b9050919050565b610b1481610afa565b82525050565b5f602082019050610b2d5f830184610b0b565b92915050565b5f5ffd5b5f5ffd5b5f601f19601f8301169050919050565b7f4e487b71000000000000000000000000000000000000000000000000000000005f52604160045260245ffd5b610b8182610b3b565b810181811067ffffffffffffffff82111715610ba057610b9f610b4b565b5b80604052505050565b5f610bb261096d565b9050610bbe8282610b78565b919050565b5f67ffffffffffffffff821115610bdd57610bdc610b4b565b5b610be682610b3b565b9050602081019050919050565b828183375f83830152505050565b5f610c13610c0e84610bc3565b610ba9565b905082815260208101848484011115610c2f57610c2e610b37565b5b610c3a848285610bf3565b509392505050565b5f82601f830112610c5657610c55610b33565b5b8135610c66848260208601610c01565b91505092915050565b5f5f60408385031215610c8557610c84610976565b5b5f83013567ffffffffffffffff811115610ca257610ca161097a565b5b610cae85828601610c42565b9250506020610cbf8582860161099d565b9150509250929050565b7f4e487b71000000000000000000000000000000000000000000000000000000005f52602160045260245ffd5b60038110610d0757610d06610cc9565b5b50565b5f819050610d1782610cf6565b919050565b5f610d2682610d0a565b9050919050565b610d3681610d1c565b82525050565b5f604082019050610d4f5f830185610ab3565b610d5c6020830184610d2d565b9392505050565b5f82825260208201905092915050565b7f4e4545445f544f5f42455f4c4f434b00000000000000000000000000000000005f82015250565b5f610da7600f83610d63565b9150610db282610d73565b602082019050919050565b5f6020820190508181035f830152610dd481610d9b565b9050919050565b5f81519050919050565b5f81905092915050565b8281835e5f83830152505050565b5f610e0782610ddb565b610e118185610de5565b9350610e21818560208601610def565b80840191505092915050565b5f610e388284610dfd565b915081905092915050565b7f4e4f5f535542534352495054494f4e00000000000000000000000000000000005f82015250565b5f610e77600f83610d63565b9150610e8282610e43565b602082019050919050565b5f6020820190508181035f830152610ea481610e6b565b9050919050565b5f604082019050610ebe5f830185610b0b565b610ecb6020830184610ab3565b9392505050565b5f8115159050919050565b610ee681610ed2565b8114610ef0575f5ffd5b50565b5f81519050610f0181610edd565b92915050565b5f60208284031215610f1c57610f1b610976565b5b5f610f2984828501610ef3565b91505092915050565b7f4e487b71000000000000000000000000000000000000000000000000000000005f52602260045260245ffd5b5f6002820490506001821680610f7657607f821691505b602082108103610f8957610f88610f32565b5b50919050565b7f414c52454144595f555345445f48414e444c45000000000000000000000000005f82015250565b5f610fc3601383610d63565b9150610fce82610f8f565b602082019050919050565b5f6020820190508181035f830152610ff081610fb7565b9050919050565b5f60608201905061100a5f830186610b0b565b6110176020830185610b0b565b6110246040830184610ab3565b949350505050565b5f819050815f5260205f209050919050565b5f6020601f8301049050919050565b5f82821b905092915050565b5f600883026110887fffffffffffffffffffffffffffffffffffffffffffffffffffffffffffffffff8261104d565b611092868361104d565b95508019841693508086168417925050509392505050565b5f819050919050565b5f6110cd6110c86110c38461097e565b6110aa565b61097e565b9050919050565b5f819050919050565b6110e6836110b3565b6110fa6110f2826110d4565b848454611059565b825550505050565b5f5f905090565b611111611102565b61111c8184846110dd565b505050565b5b8181101561113f576111345f82611109565b600181019050611122565b5050565b601f821115611184576111558161102c565b61115e8461103e565b8101602085101561116d578190505b6111816111798561103e565b830182611121565b50505b505050565b5f82821c905092915050565b5f6111a45f1984600802611189565b1980831691505092915050565b5f6111bc8383611195565b9150826002028217905092915050565b6111d582610ddb565b67ffffffffffffffff8111156111ee576111ed610b4b565b5b6111f88254610f5f565b611203828285611143565b5f60209050601f831160018114611234575f8415611222578287015190505b61122c85826111b1565b865550611293565b601f1984166112428661102c565b5f5b8281101561126957848901518255600182019150602085019450602081019050611244565b868310156112865784890151611282601f891682611195565b8355505b6001600288020188555050505b505050505050565b7f4e487b71000000000000000000000000000000000000000000000000000000005f52601160045260245ffd5b5f6112d28261097e565b91507fffffffffffffffffffffffffffffffffffffffffffffffffffffffffffffffff82036113045761130361129b565b5b60018201905091905056fea26469706673582212203750ce58b4e9c56fa55e949f38d5ddc0d27064a2f9d6537dfc82225700f5d81864736f6c634300081d0033","linkReferences":{}},"methodIdentifiers":{"USDC()":"89a30271","activeEntries(uint256)":"5ee842dc","createEntry(string,uint256)":"e6af705f","getActiveEntries()":"1c503ae6","getEntry(uint256)":"bae78d7b","proofOfPaiement(string,uint256)":"9432f56f","subscribe(uint256)":"0f574ba7"},"id":1}