{"abi":[{"type":"function","name":"activeEntries","inputs":[{"name":"","type":"uint256","internalType":"uint256"}],"outputs":[{"name":"","type":"uint256","internalType":"uint256"}],"stateMutability":"view"},{"type":"function","name":"createEntry","inputs":[{"name":"paypalHandle","type":"string","internalType":"string"},{"name":"amount","type":"uint256","internalType":"uint256"}],"outputs":[],"stateMutability":"nonpayable"},{"type":"function","name":"proofOfPaiement","inputs":[{"name":"id","type":"uint256","internalType":"uint256"}],"outputs":[],"stateMutability":"nonpayable"},{"type":"function","name":"subscribe","inputs":[{"name":"id","type":"uint256","internalType":"uint256"}],"outputs":[],"stateMutability":"nonpayable"}],"bytecode":{"object":"0x6080604052348015600e575f5ffd5b506109a48061001c5f395ff3fe608060405234801561000f575f5ffd5b506004361061004a575f3560e01c80630f574ba71461004e57806348891e391461006a5780635ee842dc14610086578063e6af705f146100b6575b5f5ffd5b61006860048036038101906100639190610396565b6100d2565b005b610084600480360381019061007f9190610396565b6101fd565b005b6100a0600480360381019061009b9190610396565b610200565b6040516100ad91906103d0565b60405180910390f35b6100d060048036038101906100cb9190610525565b610220565b005b5f73ffffffffffffffffffffffffffffffffffffffff1660025f8381526020019081526020015f205f9054906101000a900473ffffffffffffffffffffffffffffffffffffffff1673ffffffffffffffffffffffffffffffffffffffff1614610170576040517f08c379a0000000000000000000000000000000000000000000000000000000008152600401610167906105d9565b60405180910390fd5b3360025f8381526020019081526020015f205f6101000a81548173ffffffffffffffffffffffffffffffffffffffff021916908373ffffffffffffffffffffffffffffffffffffffff1602179055506001805f8381526020019081526020015f206003015f6101000a81548160ff021916908360028111156101f5576101f46105f7565b5b021790555050565b50565b6003818154811061020f575f80fd5b905f5260205f20015f915090505481565b60405180608001604052803373ffffffffffffffffffffffffffffffffffffffff1681526020018381526020018281526020015f6002811115610266576102656105f7565b5b81525060015f5f5481526020019081526020015f205f820151815f015f6101000a81548173ffffffffffffffffffffffffffffffffffffffff021916908373ffffffffffffffffffffffffffffffffffffffff16021790555060208201518160010190816102d4919061082b565b50604082015181600201556060820151816003015f6101000a81548160ff02191690836002811115610309576103086105f7565b5b021790555090505060035f54908060018154018082558091505060019003905f5260205f20015f90919091909150555f5f81548092919061034990610927565b91905055505050565b5f604051905090565b5f5ffd5b5f5ffd5b5f819050919050565b61037581610363565b811461037f575f5ffd5b50565b5f813590506103908161036c565b92915050565b5f602082840312156103ab576103aa61035b565b5b5f6103b884828501610382565b91505092915050565b6103ca81610363565b82525050565b5f6020820190506103e35f8301846103c1565b92915050565b5f5ffd5b5f5ffd5b5f601f19601f8301169050919050565b7f4e487b71000000000000000000000000000000000000000000000000000000005f52604160045260245ffd5b610437826103f1565b810181811067ffffffffffffffff8211171561045657610455610401565b5b80604052505050565b5f610468610352565b9050610474828261042e565b919050565b5f67ffffffffffffffff82111561049357610492610401565b5b61049c826103f1565b9050602081019050919050565b828183375f83830152505050565b5f6104c96104c484610479565b61045f565b9050828152602081018484840111156104e5576104e46103ed565b5b6104f08482856104a9565b509392505050565b5f82601f83011261050c5761050b6103e9565b5b813561051c8482602086016104b7565b91505092915050565b5f5f6040838503121561053b5761053a61035b565b5b5f83013567ffffffffffffffff8111156105585761055761035f565b5b610564858286016104f8565b925050602061057585828601610382565b9150509250929050565b5f82825260208201905092915050565b7f4e4545445f544f5f42455f4c4f434b00000000000000000000000000000000005f82015250565b5f6105c3600f8361057f565b91506105ce8261058f565b602082019050919050565b5f6020820190508181035f8301526105f0816105b7565b9050919050565b7f4e487b71000000000000000000000000000000000000000000000000000000005f52602160045260245ffd5b5f81519050919050565b7f4e487b71000000000000000000000000000000000000000000000000000000005f52602260045260245ffd5b5f600282049050600182168061067257607f821691505b6020821081036106855761068461062e565b5b50919050565b5f819050815f5260205f209050919050565b5f6020601f8301049050919050565b5f82821b905092915050565b5f600883026106e77fffffffffffffffffffffffffffffffffffffffffffffffffffffffffffffffff826106ac565b6106f186836106ac565b95508019841693508086168417925050509392505050565b5f819050919050565b5f61072c61072761072284610363565b610709565b610363565b9050919050565b5f819050919050565b61074583610712565b61075961075182610733565b8484546106b8565b825550505050565b5f5f905090565b610770610761565b61077b81848461073c565b505050565b5b8181101561079e576107935f82610768565b600181019050610781565b5050565b601f8211156107e3576107b48161068b565b6107bd8461069d565b810160208510156107cc578190505b6107e06107d88561069d565b830182610780565b50505b505050565b5f82821c905092915050565b5f6108035f19846008026107e8565b1980831691505092915050565b5f61081b83836107f4565b9150826002028217905092915050565b61083482610624565b67ffffffffffffffff81111561084d5761084c610401565b5b610857825461065b565b6108628282856107a2565b5f60209050601f831160018114610893575f8415610881578287015190505b61088b8582610810565b8655506108f2565b601f1984166108a18661068b565b5f5b828110156108c8578489015182556001820191506020850194506020810190506108a3565b868310156108e557848901516108e1601f8916826107f4565b8355505b6001600288020188555050505b505050505050565b7f4e487b71000000000000000000000000000000000000000000000000000000005f52601160045260245ffd5b5f61093182610363565b91507fffffffffffffffffffffffffffffffffffffffffffffffffffffffffffffffff8203610963576109626108fa565b5b60018201905091905056fea2646970667358221220d94db17b9fb83c73575d75025bdf31aaebd1efba2b802811a13b750f32ef238264736f6c634300081d0033","linkReferences":{}},"methodIdentifiers":{"activeEntries(uint256)":"5ee842dc","createEntry(string,uint256)":"e6af705f","proofOfPaiement(uint256)":"48891e39","subscribe(uint256)":"0f574ba7"},"id":0}