{"abi":[{"type":"constructor","inputs":[{"name":"_usdc","type":"address","internalType":"address"}],"stateMutability":"nonpayable"},{"type":"function","name":"USDC","inputs":[],"outputs":[{"name":"","type":"address","internalType":"address"}],"stateMutability":"view"},{"type":"function","name":"activeEntries","inputs":[{"name":"","type":"uint256","internalType":"uint256"}],"outputs":[{"name":"","type":"uint256","internalType":"uint256"}],"stateMutability":"view"},{"type":"function","name":"createEntry","inputs":[{"name":"paypalHandle","type":"string","internalType":"string"},{"name":"amount","type":"uint256","internalType":"uint256"}],"outputs":[],"stateMutability":"nonpayable"},{"type":"function","name":"getActiveEntries","inputs":[],"outputs":[{"name":"","type":"uint256[]","internalType":"uint256[]"}],"stateMutability":"view"},{"type":"function","name":"getEntry","inputs":[{"name":"id","type":"uint256","internalType":"uint256"}],"outputs":[{"name":"","type":"uint256","internalType":"uint256"},{"name":"","type":"uint8","internalType":"enum Escrow.Status"}],"stateMutability":"nonpayable"},{"type":"function","name":"proofOfPaiement","inputs":[{"name":"id","type":"uint256","internalType":"uint256"}],"outputs":[],"stateMutability":"nonpayable"},{"type":"function","name":"subscribe","inputs":[{"name":"id","type":"uint256","internalType":"uint256"}],"outputs":[],"stateMutability":"nonpayable"}],"bytecode":{"object":"0x608060405234801561000f575f5ffd5b50604051610ff8380380610ff8833981810160405281019061003191906100d4565b805f5f6101000a81548173ffffffffffffffffffffffffffffffffffffffff021916908373ffffffffffffffffffffffffffffffffffffffff160217905550506100ff565b5f5ffd5b5f73ffffffffffffffffffffffffffffffffffffffff82169050919050565b5f6100a38261007a565b9050919050565b6100b381610099565b81146100bd575f5ffd5b50565b5f815190506100ce816100aa565b92915050565b5f602082840312156100e9576100e8610076565b5b5f6100f6848285016100c0565b91505092915050565b610eec8061010c5f395ff3fe608060405234801561000f575f5ffd5b506004361061007b575f3560e01c80635ee842dc116100595780635ee842dc146100d557806389a3027114610105578063bae78d7b14610123578063e6af705f146101545761007b565b80630f574ba71461007f5780631c503ae61461009b57806348891e39146100b9575b5f5ffd5b610099600480360381019061009491906106ad565b610170565b005b6100a361029c565b6040516100b0919061078f565b60405180910390f35b6100d360048036038101906100ce91906106ad565b6102f2565b005b6100ef60048036038101906100ea91906106ad565b6102f5565b6040516100fc91906107be565b60405180910390f35b61010d610315565b60405161011a9190610816565b60405180910390f35b61013d600480360381019061013891906106ad565b610339565b60405161014b9291906108a2565b60405180910390f35b61016e60048036038101906101699190610a05565b610496565b005b5f73ffffffffffffffffffffffffffffffffffffffff1660035f8381526020019081526020015f205f9054906101000a900473ffffffffffffffffffffffffffffffffffffffff1673ffffffffffffffffffffffffffffffffffffffff161461020e576040517f08c379a000000000000000000000000000000000000000000000000000000000815260040161020590610ab9565b60405180910390fd5b3360035f8381526020019081526020015f205f6101000a81548173ffffffffffffffffffffffffffffffffffffffff021916908373ffffffffffffffffffffffffffffffffffffffff160217905550600160025f8381526020019081526020015f206003015f6101000a81548160ff021916908360028111156102945761029361082f565b5b021790555050565b606060048054806020026020016040519081016040528092919081815260200182805480156102e857602002820191905f5260205f20905b8154815260200190600101908083116102d4575b5050505050905090565b50565b60048181548110610304575f80fd5b905f5260205f20015f915090505481565b5f5f9054906101000a900473ffffffffffffffffffffffffffffffffffffffff1681565b5f5f5f60025f8581526020019081526020015f206040518060800160405290815f82015f9054906101000a900473ffffffffffffffffffffffffffffffffffffffff1673ffffffffffffffffffffffffffffffffffffffff1673ffffffffffffffffffffffffffffffffffffffff1681526020016001820180546103bc90610b04565b80601f01602080910402602001604051908101604052809291908181526020018280546103e890610b04565b80156104335780601f1061040a57610100808354040283529160200191610433565b820191905f5260205f20905b81548152906001019060200180831161041657829003601f168201915b5050505050815260200160028201548152602001600382015f9054906101000a900460ff16600281111561046a5761046961082f565b5b600281111561047c5761047b61082f565b5b815250509050806040015181606001519250925050915091565b5f5f9054906101000a900473ffffffffffffffffffffffffffffffffffffffff1673ffffffffffffffffffffffffffffffffffffffff166323b872dd3330846040518463ffffffff1660e01b81526004016104f393929190610b34565b6020604051808303815f875af115801561050f573d5f5f3e3d5ffd5b505050506040513d601f19601f820116820180604052508101906105339190610b9e565b5060405180608001604052803373ffffffffffffffffffffffffffffffffffffffff1681526020018381526020018281526020015f600281111561057a5761057961082f565b5b81525060025f60015481526020019081526020015f205f820151815f015f6101000a81548173ffffffffffffffffffffffffffffffffffffffff021916908373ffffffffffffffffffffffffffffffffffffffff16021790555060208201518160010190816105e99190610d73565b50604082015181600201556060820151816003015f6101000a81548160ff0219169083600281111561061e5761061d61082f565b5b02179055509050506004600154908060018154018082558091505060019003905f5260205f20015f909190919091505560015f81548092919061066090610e6f565b91905055505050565b5f604051905090565b5f5ffd5b5f5ffd5b5f819050919050565b61068c8161067a565b8114610696575f5ffd5b50565b5f813590506106a781610683565b92915050565b5f602082840312156106c2576106c1610672565b5b5f6106cf84828501610699565b91505092915050565b5f81519050919050565b5f82825260208201905092915050565b5f819050602082019050919050565b61070a8161067a565b82525050565b5f61071b8383610701565b60208301905092915050565b5f602082019050919050565b5f61073d826106d8565b61074781856106e2565b9350610752836106f2565b805f5b838110156107825781516107698882610710565b975061077483610727565b925050600181019050610755565b5085935050505092915050565b5f6020820190508181035f8301526107a78184610733565b905092915050565b6107b88161067a565b82525050565b5f6020820190506107d15f8301846107af565b92915050565b5f73ffffffffffffffffffffffffffffffffffffffff82169050919050565b5f610800826107d7565b9050919050565b610810816107f6565b82525050565b5f6020820190506108295f830184610807565b92915050565b7f4e487b71000000000000000000000000000000000000000000000000000000005f52602160045260245ffd5b6003811061086d5761086c61082f565b5b50565b5f81905061087d8261085c565b919050565b5f61088c82610870565b9050919050565b61089c81610882565b82525050565b5f6040820190506108b55f8301856107af565b6108c26020830184610893565b9392505050565b5f5ffd5b5f5ffd5b5f601f19601f8301169050919050565b7f4e487b71000000000000000000000000000000000000000000000000000000005f52604160045260245ffd5b610917826108d1565b810181811067ffffffffffffffff82111715610936576109356108e1565b5b80604052505050565b5f610948610669565b9050610954828261090e565b919050565b5f67ffffffffffffffff821115610973576109726108e1565b5b61097c826108d1565b9050602081019050919050565b828183375f83830152505050565b5f6109a96109a484610959565b61093f565b9050828152602081018484840111156109c5576109c46108cd565b5b6109d0848285610989565b509392505050565b5f82601f8301126109ec576109eb6108c9565b5b81356109fc848260208601610997565b91505092915050565b5f5f60408385031215610a1b57610a1a610672565b5b5f83013567ffffffffffffffff811115610a3857610a37610676565b5b610a44858286016109d8565b9250506020610a5585828601610699565b9150509250929050565b5f82825260208201905092915050565b7f4e4545445f544f5f42455f4c4f434b00000000000000000000000000000000005f82015250565b5f610aa3600f83610a5f565b9150610aae82610a6f565b602082019050919050565b5f6020820190508181035f830152610ad081610a97565b9050919050565b7f4e487b71000000000000000000000000000000000000000000000000000000005f52602260045260245ffd5b5f6002820490506001821680610b1b57607f821691505b602082108103610b2e57610b2d610ad7565b5b50919050565b5f606082019050610b475f830186610807565b610b546020830185610807565b610b6160408301846107af565b949350505050565b5f8115159050919050565b610b7d81610b69565b8114610b87575f5ffd5b50565b5f81519050610b9881610b74565b92915050565b5f60208284031215610bb357610bb2610672565b5b5f610bc084828501610b8a565b91505092915050565b5f81519050919050565b5f819050815f5260205f209050919050565b5f6020601f8301049050919050565b5f82821b905092915050565b5f60088302610c2f7fffffffffffffffffffffffffffffffffffffffffffffffffffffffffffffffff82610bf4565b610c398683610bf4565b95508019841693508086168417925050509392505050565b5f819050919050565b5f610c74610c6f610c6a8461067a565b610c51565b61067a565b9050919050565b5f819050919050565b610c8d83610c5a565b610ca1610c9982610c7b565b848454610c00565b825550505050565b5f5f905090565b610cb8610ca9565b610cc3818484610c84565b505050565b5b81811015610ce657610cdb5f82610cb0565b600181019050610cc9565b5050565b601f821115610d2b57610cfc81610bd3565b610d0584610be5565b81016020851015610d14578190505b610d28610d2085610be5565b830182610cc8565b50505b505050565b5f82821c905092915050565b5f610d4b5f1984600802610d30565b1980831691505092915050565b5f610d638383610d3c565b9150826002028217905092915050565b610d7c82610bc9565b67ffffffffffffffff811115610d9557610d946108e1565b5b610d9f8254610b04565b610daa828285610cea565b5f60209050601f831160018114610ddb575f8415610dc9578287015190505b610dd38582610d58565b865550610e3a565b601f198416610de986610bd3565b5f5b82811015610e1057848901518255600182019150602085019450602081019050610deb565b86831015610e2d5784890151610e29601f891682610d3c565b8355505b6001600288020188555050505b505050505050565b7f4e487b71000000000000000000000000000000000000000000000000000000005f52601160045260245ffd5b5f610e798261067a565b91507fffffffffffffffffffffffffffffffffffffffffffffffffffffffffffffffff8203610eab57610eaa610e42565b5b60018201905091905056fea2646970667358221220320236be4e5b389f50a6cb1b0fba68d252740a115f2329664c782f9d3a2d835564736f6c634300081d0033","linkReferences":{}},"methodIdentifiers":{"USDC()":"89a30271","activeEntries(uint256)":"5ee842dc","createEntry(string,uint256)":"e6af705f","getActiveEntries()":"1c503ae6","getEntry(uint256)":"bae78d7b","proofOfPaiement(uint256)":"48891e39","subscribe(uint256)":"0f574ba7"},"id":1}